{
  "_format": "hh-sol-artifact-1",
  "contractName": "xPayVault",
  "sourceName": "contracts/xPayVault.sol",
  "abi": [
    {
      "inputs": [
        {
          "internalType": "address",
          "name": "_agentRegistry",
          "type": "address"
        }
      ],
      "stateMutability": "nonpayable",
      "type": "constructor"
    },
    {
      "inputs": [
        {
          "internalType": "address",
          "name": "owner",
          "type": "address"
        }
      ],
      "name": "OwnableInvalidOwner",
      "type": "error"
    },
    {
      "inputs": [
        {
          "internalType": "address",
          "name": "account",
          "type": "address"
        }
      ],
      "name": "OwnableUnauthorizedAccount",
      "type": "error"
    },
    {
      "inputs": [],
      "name": "ReentrancyGuardReentrantCall",
      "type": "error"
    },
    {
      "anonymous": false,
      "inputs": [
        {
          "indexed": true,
          "internalType": "uint256",
          "name": "agentId",
          "type": "uint256"
        },
        {
          "indexed": true,
          "internalType": "address",
          "name": "vendor",
          "type": "address"
        },
        {
          "indexed": false,
          "internalType": "uint256",
          "name": "amount",
          "type": "uint256"
        },
        {
          "indexed": false,
          "internalType": "bytes32",
          "name": "storageRoot",
          "type": "bytes32"
        }
      ],
      "name": "AgentPaymentExecuted",
      "type": "event"
    },
    {
      "anonymous": false,
      "inputs": [
        {
          "indexed": true,
          "internalType": "uint256",
          "name": "agentId",
          "type": "uint256"
        },
        {
          "indexed": false,
          "internalType": "bool",
          "name": "status",
          "type": "bool"
        }
      ],
      "name": "AgentRestricted",
      "type": "event"
    },
    {
      "anonymous": false,
      "inputs": [
        {
          "indexed": true,
          "internalType": "address",
          "name": "previousOwner",
          "type": "address"
        },
        {
          "indexed": true,
          "internalType": "address",
          "name": "newOwner",
          "type": "address"
        }
      ],
      "name": "OwnershipTransferred",
      "type": "event"
    },
    {
      "anonymous": false,
      "inputs": [
        {
          "indexed": true,
          "internalType": "uint256",
          "name": "agentId",
          "type": "uint256"
        },
        {
          "indexed": false,
          "internalType": "uint256",
          "name": "dailyLimit",
          "type": "uint256"
        },
        {
          "indexed": false,
          "internalType": "uint256",
          "name": "transactionCap",
          "type": "uint256"
        }
      ],
      "name": "PolicyUpdated",
      "type": "event"
    },
    {
      "anonymous": false,
      "inputs": [
        {
          "indexed": true,
          "internalType": "address",
          "name": "vendor",
          "type": "address"
        },
        {
          "indexed": false,
          "internalType": "bool",
          "name": "status",
          "type": "bool"
        }
      ],
      "name": "VendorWhitelisted",
      "type": "event"
    },
    {
      "inputs": [
        {
          "internalType": "uint256",
          "name": "",
          "type": "uint256"
        }
      ],
      "name": "agentPolicies",
      "outputs": [
        {
          "internalType": "uint256",
          "name": "dailyLimit",
          "type": "uint256"
        },
        {
          "internalType": "uint256",
          "name": "currentDaySpend",
          "type": "uint256"
        },
        {
          "internalType": "uint256",
          "name": "lastResetTime",
          "type": "uint256"
        },
        {
          "internalType": "uint256",
          "name": "transactionCap",
          "type": "uint256"
        },
        {
          "internalType": "bool",
          "name": "isRestricted",
          "type": "bool"
        }
      ],
      "stateMutability": "view",
      "type": "function"
    },
    {
      "inputs": [],
      "name": "agentRegistry",
      "outputs": [
        {
          "internalType": "address",
          "name": "",
          "type": "address"
        }
      ],
      "stateMutability": "view",
      "type": "function"
    },
    {
      "inputs": [],
      "name": "deposit",
      "outputs": [],
      "stateMutability": "payable",
      "type": "function"
    },
    {
      "inputs": [],
      "name": "owner",
      "outputs": [
        {
          "internalType": "address",
          "name": "",
          "type": "address"
        }
      ],
      "stateMutability": "view",
      "type": "function"
    },
    {
      "inputs": [],
      "name": "renounceOwnership",
      "outputs": [],
      "stateMutability": "nonpayable",
      "type": "function"
    },
    {
      "inputs": [
        {
          "internalType": "uint256",
          "name": "agentId",
          "type": "uint256"
        },
        {
          "internalType": "address",
          "name": "vendor",
          "type": "address"
        },
        {
          "internalType": "uint256",
          "name": "amount",
          "type": "uint256"
        },
        {
          "internalType": "bytes32",
          "name": "storageRoot",
          "type": "bytes32"
        }
      ],
      "name": "requestAgentPayment",
      "outputs": [],
      "stateMutability": "nonpayable",
      "type": "function"
    },
    {
      "inputs": [
        {
          "internalType": "uint256",
          "name": "agentId",
          "type": "uint256"
        },
        {
          "internalType": "uint256",
          "name": "dailyLimit",
          "type": "uint256"
        },
        {
          "internalType": "uint256",
          "name": "transactionCap",
          "type": "uint256"
        }
      ],
      "name": "setAgentPolicy",
      "outputs": [],
      "stateMutability": "nonpayable",
      "type": "function"
    },
    {
      "inputs": [
        {
          "internalType": "address",
          "name": "_agentRegistry",
          "type": "address"
        }
      ],
      "name": "setAgentRegistry",
      "outputs": [],
      "stateMutability": "nonpayable",
      "type": "function"
    },
    {
      "inputs": [
        {
          "internalType": "uint256",
          "name": "agentId",
          "type": "uint256"
        },
        {
          "internalType": "bool",
          "name": "status",
          "type": "bool"
        }
      ],
      "name": "setAgentRestriction",
      "outputs": [],
      "stateMutability": "nonpayable",
      "type": "function"
    },
    {
      "inputs": [
        {
          "internalType": "address",
          "name": "vendor",
          "type": "address"
        },
        {
          "internalType": "bool",
          "name": "status",
          "type": "bool"
        }
      ],
      "name": "setVendorWhitelist",
      "outputs": [],
      "stateMutability": "nonpayable",
      "type": "function"
    },
    {
      "inputs": [
        {
          "internalType": "address",
          "name": "newOwner",
          "type": "address"
        }
      ],
      "name": "transferOwnership",
      "outputs": [],
      "stateMutability": "nonpayable",
      "type": "function"
    },
    {
      "inputs": [
        {
          "internalType": "address",
          "name": "",
          "type": "address"
        }
      ],
      "name": "verifiedVendors",
      "outputs": [
        {
          "internalType": "bool",
          "name": "",
          "type": "bool"
        }
      ],
      "stateMutability": "view",
      "type": "function"
    },
    {
      "inputs": [
        {
          "internalType": "uint256",
          "name": "amount",
          "type": "uint256"
        }
      ],
      "name": "withdraw",
      "outputs": [],
      "stateMutability": "nonpayable",
      "type": "function"
    },
    {
      "stateMutability": "payable",
      "type": "receive"
    }
  ],
  "bytecode": "0x608060405234801561001057600080fd5b506040516116a93803806116a98339818101604052810190610032919061027d565b33600073ffffffffffffffffffffffffffffffffffffffff168173ffffffffffffffffffffffffffffffffffffffff16036100a55760006040517f1e4fbdf700000000000000000000000000000000000000000000000000000000815260040161009c91906102b9565b60405180910390fd5b6100b48161012160201b60201c565b5060016100d36100c86101e560201b60201c565b61021060201b60201c565b6000018190555080600160006101000a81548173ffffffffffffffffffffffffffffffffffffffff021916908373ffffffffffffffffffffffffffffffffffffffff160217905550506102d4565b60008060009054906101000a900473ffffffffffffffffffffffffffffffffffffffff169050816000806101000a81548173ffffffffffffffffffffffffffffffffffffffff021916908373ffffffffffffffffffffffffffffffffffffffff1602179055508173ffffffffffffffffffffffffffffffffffffffff168173ffffffffffffffffffffffffffffffffffffffff167f8be0079c531659141344cd1fd0a4f28419497f9722a3daafe3b4186f6b6457e060405160405180910390a35050565b60007f9b779b17422d0df92223018b32b4d1fa46e071723d6817e2486d003becc55f0060001b905090565b6000819050919050565b600080fd5b600073ffffffffffffffffffffffffffffffffffffffff82169050919050565b600061024a8261021f565b9050919050565b61025a8161023f565b811461026557600080fd5b50565b60008151905061027781610251565b92915050565b6000602082840312156102935761029261021a565b5b60006102a184828501610268565b91505092915050565b6102b38161023f565b82525050565b60006020820190506102ce60008301846102aa565b92915050565b6113c6806102e36000396000f3fe6080604052600436106100c65760003560e01c806376a0931e1161007f578063913d219a11610059578063913d219a14610249578063c1b50efc14610272578063d0e30db0146102b3578063f2fde38b146102bd576100cd565b806376a0931e146101b85780638da5cb5b146101f55780638e2ad20814610220576100cd565b806306721259146100d25780630d1cfcae146100fb57806328342ecf146101265780632e1a7d4d1461014f57806369ef728614610178578063715018a6146101a1576100cd565b366100cd57005b600080fd5b3480156100de57600080fd5b506100f960048036038101906100f49190610cfa565b6102e6565b005b34801561010757600080fd5b50610110610397565b60405161011d9190610d49565b60405180910390f35b34801561013257600080fd5b5061014d60048036038101906101489190610d64565b6103bd565b005b34801561015b57600080fd5b5061017660048036038101906101719190610dc7565b610409565b005b34801561018457600080fd5b5061019f600480360381019061019a9190610df4565b61045b565b005b3480156101ad57600080fd5b506101b66104e2565b005b3480156101c457600080fd5b506101df60048036038101906101da9190610d64565b6104f6565b6040516101ec9190610e56565b60405180910390f35b34801561020157600080fd5b5061020a610516565b6040516102179190610d49565b60405180910390f35b34801561022c57600080fd5b5061024760048036038101906102429190610e71565b61053f565b005b34801561025557600080fd5b50610270600480360381019061026b9190610ee7565b6105b1565b005b34801561027e57600080fd5b5061029960048036038101906102949190610dc7565b61096f565b6040516102aa959493929190610f5d565b60405180910390f35b6102bb6109b2565b005b3480156102c957600080fd5b506102e460048036038101906102df9190610d64565b6109b4565b005b6102ee610a3a565b80600360008473ffffffffffffffffffffffffffffffffffffffff1673ffffffffffffffffffffffffffffffffffffffff16815260200190815260200160002060006101000a81548160ff0219169083151502179055508173ffffffffffffffffffffffffffffffffffffffff167fe2b63f0f9f931cf6cc2823929022126189a4981700f4b44647fd3696f01340b88260405161038b9190610e56565b60405180910390a25050565b600160009054906101000a900473ffffffffffffffffffffffffffffffffffffffff1681565b6103c5610a3a565b80600160006101000a81548173ffffffffffffffffffffffffffffffffffffffff021916908373ffffffffffffffffffffffffffffffffffffffff16021790555050565b610411610a3a565b3373ffffffffffffffffffffffffffffffffffffffff166108fc829081150290604051600060405180830381858888f19350505050158015610457573d6000803e3d6000fd5b5050565b610463610a3a565b600060026000858152602001908152602001600020905082816000018190555081816003018190555060008160020154036104a2574281600201819055505b837f3badea81551087ffbccf48e1f2096512ab718dfab5d02debd5a148d4bb5a6f5784846040516104d4929190610fb0565b60405180910390a250505050565b6104ea610a3a565b6104f46000610ac1565b565b60036020528060005260406000206000915054906101000a900460ff1681565b60008060009054906101000a900473ffffffffffffffffffffffffffffffffffffffff16905090565b610547610a3a565b806002600084815260200190815260200160002060040160006101000a81548160ff021916908315150217905550817f75fb66099cf8275134fd51f92476f46bb0fb000485c0d46408db773bc9a74cf1826040516105a59190610e56565b60405180910390a25050565b6105b9610b85565b60006002600086815260200190815260200160002090508060040160009054906101000a900460ff1615610622576040517f08c379a000000000000000000000000000000000000000000000000000000000815260040161061990611036565b60405180910390fd5b3373ffffffffffffffffffffffffffffffffffffffff16600160009054906101000a900473ffffffffffffffffffffffffffffffffffffffff1673ffffffffffffffffffffffffffffffffffffffff16636352211e876040518263ffffffff1660e01b81526004016106949190611056565b602060405180830381865afa1580156106b1573d6000803e3d6000fd5b505050506040513d601f19601f820116820180604052508101906106d59190611086565b73ffffffffffffffffffffffffffffffffffffffff161461072b576040517f08c379a000000000000000000000000000000000000000000000000000000000815260040161072290611125565b60405180910390fd5b62015180816002015461073e9190611174565b421061075857600081600101819055504281600201819055505b600360008573ffffffffffffffffffffffffffffffffffffffff1673ffffffffffffffffffffffffffffffffffffffff16815260200190815260200160002060009054906101000a900460ff166107f15780600301548311156107f0576040517f08c379a00000000000000000000000000000000000000000000000000000000081526004016107e79061121a565b60405180910390fd5b5b80600001548382600101546108069190611174565b1115610847576040517f08c379a000000000000000000000000000000000000000000000000000000000815260040161083e90611286565b60405180910390fd5b8281600101600082825461085b9190611174565b9250508190555060008473ffffffffffffffffffffffffffffffffffffffff1684604051610888906112d7565b60006040518083038185875af1925050503d80600081146108c5576040519150601f19603f3d011682016040523d82523d6000602084013e6108ca565b606091505b505090508061090e576040517f08c379a000000000000000000000000000000000000000000000000000000000815260040161090590611338565b60405180910390fd5b8473ffffffffffffffffffffffffffffffffffffffff16867f28b6a71063b724241def20135281ec479ca2a4db4fdde4b611bec7e9ffa27f748686604051610957929190611367565b60405180910390a35050610969610ba8565b50505050565b60026020528060005260406000206000915090508060000154908060010154908060020154908060030154908060040160009054906101000a900460ff16905085565b565b6109bc610a3a565b600073ffffffffffffffffffffffffffffffffffffffff168173ffffffffffffffffffffffffffffffffffffffff1603610a2e5760006040517f1e4fbdf7000000000000000000000000000000000000000000000000000000008152600401610a259190610d49565b60405180910390fd5b610a3781610ac1565b50565b610a42610bc3565b73ffffffffffffffffffffffffffffffffffffffff16610a60610516565b73ffffffffffffffffffffffffffffffffffffffff1614610abf57610a83610bc3565b6040517f118cdaa7000000000000000000000000000000000000000000000000000000008152600401610ab69190610d49565b60405180910390fd5b565b60008060009054906101000a900473ffffffffffffffffffffffffffffffffffffffff169050816000806101000a81548173ffffffffffffffffffffffffffffffffffffffff021916908373ffffffffffffffffffffffffffffffffffffffff1602179055508173ffffffffffffffffffffffffffffffffffffffff168173ffffffffffffffffffffffffffffffffffffffff167f8be0079c531659141344cd1fd0a4f28419497f9722a3daafe3b4186f6b6457e060405160405180910390a35050565b610b8d610bcb565b6002610b9f610b9a610c0c565b610c37565b60000181905550565b6001610bba610bb5610c0c565b610c37565b60000181905550565b600033905090565b610bd3610c41565b15610c0a576040517f3ee5aeb500000000000000000000000000000000000000000000000000000000815260040160405180910390fd5b565b60007f9b779b17422d0df92223018b32b4d1fa46e071723d6817e2486d003becc55f0060001b905090565b6000819050919050565b60006002610c55610c50610c0c565b610c37565b6000015414905090565b600080fd5b600073ffffffffffffffffffffffffffffffffffffffff82169050919050565b6000610c8f82610c64565b9050919050565b610c9f81610c84565b8114610caa57600080fd5b50565b600081359050610cbc81610c96565b92915050565b60008115159050919050565b610cd781610cc2565b8114610ce257600080fd5b50565b600081359050610cf481610cce565b92915050565b60008060408385031215610d1157610d10610c5f565b5b6000610d1f85828601610cad565b9250506020610d3085828601610ce5565b9150509250929050565b610d4381610c84565b82525050565b6000602082019050610d5e6000830184610d3a565b92915050565b600060208284031215610d7a57610d79610c5f565b5b6000610d8884828501610cad565b91505092915050565b6000819050919050565b610da481610d91565b8114610daf57600080fd5b50565b600081359050610dc181610d9b565b92915050565b600060208284031215610ddd57610ddc610c5f565b5b6000610deb84828501610db2565b91505092915050565b600080600060608486031215610e0d57610e0c610c5f565b5b6000610e1b86828701610db2565b9350506020610e2c86828701610db2565b9250506040610e3d86828701610db2565b9150509250925092565b610e5081610cc2565b82525050565b6000602082019050610e6b6000830184610e47565b92915050565b60008060408385031215610e8857610e87610c5f565b5b6000610e9685828601610db2565b9250506020610ea785828601610ce5565b9150509250929050565b6000819050919050565b610ec481610eb1565b8114610ecf57600080fd5b50565b600081359050610ee181610ebb565b92915050565b60008060008060808587031215610f0157610f00610c5f565b5b6000610f0f87828801610db2565b9450506020610f2087828801610cad565b9350506040610f3187828801610db2565b9250506060610f4287828801610ed2565b91505092959194509250565b610f5781610d91565b82525050565b600060a082019050610f726000830188610f4e565b610f7f6020830187610f4e565b610f8c6040830186610f4e565b610f996060830185610f4e565b610fa66080830184610e47565b9695505050505050565b6000604082019050610fc56000830185610f4e565b610fd26020830184610f4e565b9392505050565b600082825260208201905092915050565b7f4167656e74206973207265737472696374656400000000000000000000000000600082015250565b6000611020601383610fd9565b915061102b82610fea565b602082019050919050565b6000602082019050818103600083015261104f81611013565b9050919050565b600060208201905061106b6000830184610f4e565b92915050565b60008151905061108081610c96565b92915050565b60006020828403121561109c5761109b610c5f565b5b60006110aa84828501611071565b91505092915050565b7f556e617574686f72697a65643a204167656e74204944206e6f74206f776e656460008201527f2062792073656e64657200000000000000000000000000000000000000000000602082015250565b600061110f602a83610fd9565b915061111a826110b3565b604082019050919050565b6000602082019050818103600083015261113e81611102565b9050919050565b7f4e487b7100000000000000000000000000000000000000000000000000000000600052601160045260246000fd5b600061117f82610d91565b915061118a83610d91565b92508282019050808211156111a2576111a1611145565b5b92915050565b7f416d6f756e742065786365656473207472616e73616374696f6e20636170206660008201527f6f72206e6f6e2d76657269666965642076656e646f7200000000000000000000602082015250565b6000611204603683610fd9565b915061120f826111a8565b604082019050919050565b60006020820190508181036000830152611233816111f7565b9050919050565b7f4461696c79207370656e64206c696d6974206578636565646564000000000000600082015250565b6000611270601a83610fd9565b915061127b8261123a565b602082019050919050565b6000602082019050818103600083015261129f81611263565b9050919050565b600081905092915050565b50565b60006112c16000836112a6565b91506112cc826112b1565b600082019050919050565b60006112e2826112b4565b9150819050919050565b7f5061796d656e74207472616e73666572206661696c6564000000000000000000600082015250565b6000611322601783610fd9565b915061132d826112ec565b602082019050919050565b6000602082019050818103600083015261135181611315565b9050919050565b61136181610eb1565b82525050565b600060408201905061137c6000830185610f4e565b6113896020830184611358565b939250505056fea2646970667358221220d21d61e4e251d1a28b98f582673f29f7c359d0c91e627b8b3b0f42aeaf82797f64736f6c634300081c0033",
  "linkReferences": {},
  "deployedLinkReferences": {}
}