{"contracts/xPayVault.sol":{"xPayVault":{"abi":[{"inputs":[{"internalType":"contract IEntryPoint","name":"_entryPoint","type":"address"},{"internalType":"address","name":"_agentRegistry","type":"address"},{"internalType":"contract IERC20","name":"_settlementToken","type":"address"}],"stateMutability":"nonpayable","type":"constructor"},{"inputs":[],"name":"ECDSAInvalidSignature","type":"error"},{"inputs":[{"internalType":"uint256","name":"length","type":"uint256"}],"name":"ECDSAInvalidSignatureLength","type":"error"},{"inputs":[{"internalType":"bytes32","name":"s","type":"bytes32"}],"name":"ECDSAInvalidSignatureS","type":"error"},{"inputs":[{"internalType":"address","name":"owner","type":"address"}],"name":"OwnableInvalidOwner","type":"error"},{"inputs":[{"internalType":"address","name":"account","type":"address"}],"name":"OwnableUnauthorizedAccount","type":"error"},{"inputs":[],"name":"ReentrancyGuardReentrantCall","type":"error"},{"anonymous":false,"inputs":[{"indexed":true,"internalType":"uint256","name":"agentId","type":"uint256"},{"indexed":true,"internalType":"address","name":"vendor","type":"address"},{"indexed":false,"internalType":"uint256","name":"amount","type":"uint256"},{"indexed":false,"internalType":"bytes32","name":"storageRoot","type":"bytes32"}],"name":"AgentPaymentExecuted","type":"event"},{"anonymous":false,"inputs":[{"indexed":true,"internalType":"address","name":"previousOwner","type":"address"},{"indexed":true,"internalType":"address","name":"newOwner","type":"address"}],"name":"OwnershipTransferred","type":"event"},{"anonymous":false,"inputs":[{"indexed":true,"internalType":"uint256","name":"agentId","type":"uint256"},{"indexed":false,"internalType":"address","name":"agentKey","type":"address"},{"indexed":false,"internalType":"uint256","name":"limit","type":"uint256"},{"indexed":false,"internalType":"uint256","name":"expiry","type":"uint256"}],"name":"SessionAuthorized","type":"event"},{"anonymous":false,"inputs":[{"indexed":true,"internalType":"uint256","name":"agentId","type":"uint256"}],"name":"SessionRevoked","type":"event"},{"anonymous":false,"inputs":[{"indexed":true,"internalType":"address","name":"vendor","type":"address"},{"indexed":false,"internalType":"bool","name":"status","type":"bool"}],"name":"VendorWhitelisted","type":"event"},{"inputs":[],"name":"agentRegistry","outputs":[{"internalType":"address","name":"","type":"address"}],"stateMutability":"view","type":"function"},{"inputs":[{"internalType":"uint256","name":"","type":"uint256"}],"name":"agentSessions","outputs":[{"internalType":"address","name":"agentSignerKey","type":"address"},{"internalType":"uint256","name":"expiresAt","type":"uint256"},{"internalType":"uint256","name":"maxSpendLimit","type":"uint256"},{"internalType":"uint256","name":"currentSpend","type":"uint256"},{"internalType":"bool","name":"isRevoked","type":"bool"}],"stateMutability":"view","type":"function"},{"inputs":[{"internalType":"uint256","name":"agentId","type":"uint256"},{"internalType":"address","name":"agentKey","type":"address"},{"internalType":"uint256","name":"limit","type":"uint256"},{"internalType":"uint256","name":"duration","type":"uint256"}],"name":"authorizeSession","outputs":[],"stateMutability":"nonpayable","type":"function"},{"inputs":[{"internalType":"uint256","name":"agentId","type":"uint256"},{"internalType":"uint256","name":"amount","type":"uint256"},{"internalType":"bytes32","name":"storageRoot","type":"bytes32"},{"internalType":"bytes","name":"signature","type":"bytes"}],"name":"claimM2MPayment","outputs":[],"stateMutability":"nonpayable","type":"function"},{"inputs":[],"name":"deposit","outputs":[],"stateMutability":"payable","type":"function"},{"inputs":[],"name":"entryPoint","outputs":[{"internalType":"contract IEntryPoint","name":"","type":"address"}],"stateMutability":"view","type":"function"},{"inputs":[{"internalType":"address","name":"dest","type":"address"},{"internalType":"uint256","name":"value","type":"uint256"},{"internalType":"bytes","name":"func","type":"bytes"}],"name":"execute","outputs":[],"stateMutability":"nonpayable","type":"function"},{"inputs":[],"name":"owner","outputs":[{"internalType":"address","name":"","type":"address"}],"stateMutability":"view","type":"function"},{"inputs":[],"name":"renounceOwnership","outputs":[],"stateMutability":"nonpayable","type":"function"},{"inputs":[{"internalType":"uint256","name":"agentId","type":"uint256"}],"name":"revokeSession","outputs":[],"stateMutability":"nonpayable","type":"function"},{"inputs":[{"internalType":"contract IERC20","name":"_token","type":"address"}],"name":"setSettlementToken","outputs":[],"stateMutability":"nonpayable","type":"function"},{"inputs":[{"internalType":"address","name":"vendor","type":"address"},{"internalType":"bool","name":"status","type":"bool"}],"name":"setVendorWhitelist","outputs":[],"stateMutability":"nonpayable","type":"function"},{"inputs":[],"name":"settlementToken","outputs":[{"internalType":"contract IERC20","name":"","type":"address"}],"stateMutability":"view","type":"function"},{"inputs":[{"internalType":"address","name":"newOwner","type":"address"}],"name":"transferOwnership","outputs":[],"stateMutability":"nonpayable","type":"function"},{"inputs":[{"components":[{"internalType":"address","name":"sender","type":"address"},{"internalType":"uint256","name":"nonce","type":"uint256"},{"internalType":"bytes","name":"initCode","type":"bytes"},{"internalType":"bytes","name":"callData","type":"bytes"},{"internalType":"bytes32","name":"accountGasLimits","type":"bytes32"},{"internalType":"uint256","name":"preVerificationGas","type":"uint256"},{"internalType":"bytes32","name":"gasFees","type":"bytes32"},{"internalType":"bytes","name":"paymasterAndData","type":"bytes"},{"internalType":"bytes","name":"signature","type":"bytes"}],"internalType":"struct PackedUserOperation","name":"userOp","type":"tuple"},{"internalType":"bytes32","name":"userOpHash","type":"bytes32"},{"internalType":"uint256","name":"missingAccountFunds","type":"uint256"}],"name":"validateUserOp","outputs":[{"internalType":"uint256","name":"validationData","type":"uint256"}],"stateMutability":"nonpayable","type":"function"},{"inputs":[{"internalType":"address","name":"","type":"address"}],"name":"verifiedVendors","outputs":[{"internalType":"bool","name":"","type":"bool"}],"stateMutability":"view","type":"function"},{"inputs":[{"internalType":"address","name":"token","type":"address"},{"internalType":"uint256","name":"amount","type":"uint256"}],"name":"withdraw","outputs":[],"stateMutability":"nonpayable","type":"function"},{"stateMutability":"payable","type":"receive"}],"evm":{"bytecode":{"linkReferences":{},"object":"60a060405234801561000f575f5ffd5b506040516113b03803806113b083398101604081905261002e9161011d565b338061005357604051631e4fbdf760e01b81525f600482015260240160405180910390fd5b61005c816100b7565b5060017f9b779b17422d0df92223018b32b4d1fa46e071723d6817e2486d003becc55f00556001600160a01b03928316608052600180549284166001600160a01b031993841617905560028054919093169116179055610167565b5f80546001600160a01b038381166001600160a01b0319831681178455604051919092169283917f8be0079c531659141344cd1fd0a4f28419497f9722a3daafe3b4186f6b6457e09190a35050565b6001600160a01b038116811461011a575f5ffd5b50565b5f5f5f6060848603121561012f575f5ffd5b835161013a81610106565b602085015190935061014b81610106565b604085015190925061015c81610106565b809150509250925092565b60805161122361018d5f395f818161026e0152818161042701526106c201526112235ff3fe6080604052600436106100fd575f3560e01c80638da5cb5b11610092578063d0e30db011610062578063d0e30db014610127578063f2fde38b146102ce578063f3fef3a3146102ed578063f8ea6ecf1461030c578063fd53992b14610396575f5ffd5b80638da5cb5b14610241578063b0d691fe1461025d578063b61d27f614610290578063b9872085146102af575f5ffd5b8063715018a6116100cd578063715018a6146101b157806376a0931e146101c55780637b9e618d146102035780638bce85d614610222575f5ffd5b806306721259146101085780630d1cfcae1461012957806319822f7c146101655780633ef476db14610192575f5ffd5b3661010457005b5f5ffd5b348015610113575f5ffd5b50610127610122366004610f38565b6103b5565b005b348015610134575f5ffd5b50600154610148906001600160a01b031681565b6040516001600160a01b0390911681526020015b60405180910390f35b348015610170575f5ffd5b5061018461017f366004610f6f565b61041b565b60405190815260200161015c565b34801561019d575f5ffd5b506101276101ac366004610fbe565b610577565b3480156101bc575f5ffd5b506101276105a1565b3480156101d0575f5ffd5b506101f36101df366004610fbe565b60046020525f908152604090205460ff1681565b604051901515815260200161015c565b34801561020e575f5ffd5b50600254610148906001600160a01b031681565b34801561022d575f5ffd5b5061012761023c366004610fd9565b6105b4565b34801561024c575f5ffd5b505f546001600160a01b0316610148565b348015610268575f5ffd5b506101487f000000000000000000000000000000000000000000000000000000000000000081565b34801561029b575f5ffd5b506101276102aa366004611058565b6106b7565b3480156102ba575f5ffd5b506101276102c93660046110b0565b6107a0565b3480156102d9575f5ffd5b506101276102e8366004610fbe565b6107ed565b3480156102f8575f5ffd5b506101276103073660046110c7565b61082a565b348015610317575f5ffd5b506103626103263660046110b0565b600360208190525f9182526040909120805460018201546002830154938301546004909301546001600160a01b03909216939092909160ff1685565b604080516001600160a01b03909616865260208601949094529284019190915260608301521515608082015260a00161015c565b3480156103a1575f5ffd5b506101276103b03660046110f1565b6108e1565b6103bd610c07565b6001600160a01b0382165f81815260046020908152604091829020805460ff191685151590811790915591519182527fe2b63f0f9f931cf6cc2823929022126189a4981700f4b44647fd3696f01340b8910160405180910390a25050565b5f336001600160a01b037f000000000000000000000000000000000000000000000000000000000000000016146104945760405162461bcd60e51b815260206004820152601860248201527710d85b1b195c881a5cc81b9bdd08115b9d1c9e541bda5b9d60421b60448201526064015b60405180910390fd5b6104ea6104a561010086018661114d565b8080601f0160208091040260200160405190810160405280939291908181526020018383808284375f920191909152506104e49250879150610c339050565b90610c65565b6001600160a01b03166105045f546001600160a01b031690565b6001600160a01b03161461051a57506001610570565b811561056d576040515f9033905f1990859084818181858888f193505050503d805f8114610563576040519150601f19603f3d011682016040523d82523d5f602084013e610568565b606091505b505050505b505f5b9392505050565b61057f610c07565b600280546001600160a01b0319166001600160a01b0392909216919091179055565b6105a9610c07565b6105b25f610c8f565b565b6105bc610c07565b6040518060a00160405280846001600160a01b0316815260200182426105e29190611190565b815260208082018590525f60408084018290526060938401829052888252600380845291819020855181546001600160a01b0319166001600160a01b03909116178155928501516001840155840151600283015591830151918101919091556080909101516004909101805460ff1916911515919091179055837f5c9807dc54a8ace65ff99d37f06fe0cf7a770a7ac7bf50edfd1d7766071febeb84846106898542611190565b604080516001600160a01b03909416845260208401929092529082015260600160405180910390a250505050565b336001600160a01b037f0000000000000000000000000000000000000000000000000000000000000000161461072a5760405162461bcd60e51b815260206004820152601860248201527710d85b1b195c881a5cc81b9bdd08115b9d1c9e541bda5b9d60421b604482015260640161048b565b5f5f856001600160a01b03168585856040516107479291906111af565b5f6040518083038185875af1925050503d805f8114610781576040519150601f19603f3d011682016040523d82523d5f602084013e610786565b606091505b50915091508161079857805160208201fd5b505050505050565b6107a8610c07565b5f81815260036020526040808220600401805460ff191660011790555182917f4474eaecc0be9619471fda1641313a4a5dc8513b52cfeb827abf4e543bbd597e91a250565b6107f5610c07565b6001600160a01b03811661081e57604051631e4fbdf760e01b81525f600482015260240161048b565b61082781610c8f565b50565b610832610c07565b6001600160a01b03821661086f57604051339082156108fc029083905f818181858888f1935050505015801561086a573d5f5f3e3d5ffd5b505050565b60405163a9059cbb60e01b8152336004820152602481018290526001600160a01b0383169063a9059cbb906044016020604051808303815f875af11580156108b9573d5f5f3e3d5ffd5b505050506040513d601f19601f8201168201806040525081019061086a91906111be565b5050565b6108e9610cde565b5f858152600360205260409020600481015460ff161561093d5760405162461bcd60e51b815260206004820152600f60248201526e14d95cdcda5bdb881c995d9bdad959608a1b604482015260640161048b565b80600101544211156109835760405162461bcd60e51b815260206004820152600f60248201526e14d95cdcda5bdb88195e1c1a5c9959608a1b604482015260640161048b565b80600201548582600301546109989190611190565b11156109d85760405162461bcd60e51b815260206004820152600f60248201526e109d5919d95d08195e18d959591959608a1b604482015260640161048b565b6040516bffffffffffffffffffffffff193060601b1660208201526034810187905260548101869052607481018590525f906094016040516020818303038152906040528051906020012090505f610a6a85858080601f0160208091040260200160405190810160405280939291908181526020018383808284375f920191909152506104e49250869150610c339050565b83549091506001600160a01b03808316911614610ac95760405162461bcd60e51b815260206004820152601760248201527f496e76616c6964206167656e74207369676e6174757265000000000000000000604482015260640161048b565b86836003015f828254610adc9190611190565b909155505060025460405163a9059cbb60e01b8152336004820152602481018990526001600160a01b039091169063a9059cbb906044016020604051808303815f875af1158015610b2f573d5f5f3e3d5ffd5b505050506040513d601f19601f82011682018060405250810190610b5391906111be565b610b975760405162461bcd60e51b8152602060048201526015602482015274151bdad95b881d1c985b9cd9995c8819985a5b1959605a1b604482015260640161048b565b604080518881526020810188905233918a917f28b6a71063b724241def20135281ec479ca2a4db4fdde4b611bec7e9ffa27f74910160405180910390a3505050610c0060017f9b779b17422d0df92223018b32b4d1fa46e071723d6817e2486d003becc55f0055565b5050505050565b5f546001600160a01b031633146105b25760405163118cdaa760e01b815233600482015260240161048b565b7f19457468657265756d205369676e6564204d6573736167653a0a3332000000005f908152601c91909152603c902090565b5f5f5f5f610c738686610d0c565b925092509250610c838282610d55565b50909150505b92915050565b5f80546001600160a01b038381166001600160a01b0319831681178455604051919092169283917f8be0079c531659141344cd1fd0a4f28419497f9722a3daafe3b4186f6b6457e09190a35050565b610ce6610e0d565b60027f9b779b17422d0df92223018b32b4d1fa46e071723d6817e2486d003becc55f0055565b5f5f5f8351604103610d43576020840151604085015160608601515f1a610d3588828585610e4f565b955095509550505050610d4e565b505081515f91506002905b9250925092565b5f826003811115610d6857610d686111d9565b03610d71575050565b6001826003811115610d8557610d856111d9565b03610da35760405163f645eedf60e01b815260040160405180910390fd5b6002826003811115610db757610db76111d9565b03610dd85760405163fce698f760e01b81526004810182905260240161048b565b6003826003811115610dec57610dec6111d9565b036108dd576040516335e2f38360e21b81526004810182905260240161048b565b7f9b779b17422d0df92223018b32b4d1fa46e071723d6817e2486d003becc55f00546002036105b257604051633ee5aeb560e01b815260040160405180910390fd5b5f80807f7fffffffffffffffffffffffffffffff5d576e7357a4501ddfe92f46681b20a0841115610e8857505f91506003905082610f0d565b604080515f808252602082018084528a905260ff891692820192909252606081018790526080810186905260019060a0016020604051602081039080840390855afa158015610ed9573d5f5f3e3d5ffd5b5050604051601f1901519150506001600160a01b038116610f0457505f925060019150829050610f0d565b92505f91508190505b9450945094915050565b6001600160a01b0381168114610827575f5ffd5b8015158114610827575f5ffd5b5f5f60408385031215610f49575f5ffd5b8235610f5481610f17565b91506020830135610f6481610f2b565b809150509250929050565b5f5f5f60608486031215610f81575f5ffd5b833567ffffffffffffffff811115610f97575f5ffd5b84016101208187031215610fa9575f5ffd5b95602085013595506040909401359392505050565b5f60208284031215610fce575f5ffd5b813561057081610f17565b5f5f5f5f60808587031215610fec575f5ffd5b843593506020850135610ffe81610f17565b93969395505050506040820135916060013590565b5f5f83601f840112611023575f5ffd5b50813567ffffffffffffffff81111561103a575f5ffd5b602083019150836020828501011115611051575f5ffd5b9250929050565b5f5f5f5f6060858703121561106b575f5ffd5b843561107681610f17565b935060208501359250604085013567ffffffffffffffff811115611098575f5ffd5b6110a487828801611013565b95989497509550505050565b5f602082840312156110c0575f5ffd5b5035919050565b5f5f604083850312156110d8575f5ffd5b82356110e381610f17565b946020939093013593505050565b5f5f5f5f5f60808688031215611105575f5ffd5b853594506020860135935060408601359250606086013567ffffffffffffffff811115611130575f5ffd5b61113c88828901611013565b969995985093965092949392505050565b5f5f8335601e19843603018112611162575f5ffd5b83018035915067ffffffffffffffff82111561117c575f5ffd5b602001915036819003821315611051575f5ffd5b80820180821115610c8957634e487b7160e01b5f52601160045260245ffd5b818382375f9101908152919050565b5f602082840312156111ce575f5ffd5b815161057081610f2b565b634e487b7160e01b5f52602160045260245ffdfea2646970667358221220891f8b2bcbe11c03bf2b98a6963c304102bede6a3081ef85f059a93139da18ff64736f6c634300081c0033","opcodes":"PUSH1 0xA0 PUSH1 0x40 MSTORE CALLVALUE DUP1 ISZERO PUSH2 0xF JUMPI PUSH0 PUSH0 REVERT JUMPDEST POP PUSH1 0x40 MLOAD PUSH2 0x13B0 CODESIZE SUB DUP1 PUSH2 0x13B0 DUP4 CODECOPY DUP2 ADD PUSH1 0x40 DUP2 SWAP1 MSTORE PUSH2 0x2E SWAP2 PUSH2 0x11D JUMP JUMPDEST CALLER DUP1 PUSH2 0x53 JUMPI PUSH1 0x40 MLOAD PUSH4 0x1E4FBDF7 PUSH1 0xE0 SHL DUP2 MSTORE PUSH0 PUSH1 0x4 DUP3 ADD MSTORE PUSH1 0x24 ADD PUSH1 0x40 MLOAD DUP1 SWAP2 SUB SWAP1 REVERT JUMPDEST PUSH2 0x5C DUP2 PUSH2 0xB7 JUMP JUMPDEST POP PUSH1 0x1 PUSH32 0x9B779B17422D0DF92223018B32B4D1FA46E071723D6817E2486D003BECC55F00 SSTORE PUSH1 0x1 PUSH1 0x1 PUSH1 0xA0 SHL SUB SWAP3 DUP4 AND PUSH1 0x80 MSTORE PUSH1 0x1 DUP1 SLOAD SWAP3 DUP5 AND PUSH1 0x1 PUSH1 0x1 PUSH1 0xA0 SHL SUB NOT SWAP4 DUP5 AND OR SWAP1 SSTORE PUSH1 0x2 DUP1 SLOAD SWAP2 SWAP1 SWAP4 AND SWAP2 AND OR SWAP1 SSTORE PUSH2 0x167 JUMP JUMPDEST PUSH0 DUP1 SLOAD PUSH1 0x1 PUSH1 0x1 PUSH1 0xA0 SHL SUB DUP4 DUP2 AND PUSH1 0x1 PUSH1 0x1 PUSH1 0xA0 SHL SUB NOT DUP4 AND DUP2 OR DUP5 SSTORE PUSH1 0x40 MLOAD SWAP2 SWAP1 SWAP3 AND SWAP3 DUP4 SWAP2 PUSH32 0x8BE0079C531659141344CD1FD0A4F28419497F9722A3DAAFE3B4186F6B6457E0 SWAP2 SWAP1 LOG3 POP POP JUMP JUMPDEST PUSH1 0x1 PUSH1 0x1 PUSH1 0xA0 SHL SUB DUP2 AND DUP2 EQ PUSH2 0x11A JUMPI PUSH0 PUSH0 REVERT JUMPDEST POP JUMP JUMPDEST PUSH0 PUSH0 PUSH0 PUSH1 0x60 DUP5 DUP7 SUB SLT ISZERO PUSH2 0x12F JUMPI PUSH0 PUSH0 REVERT JUMPDEST DUP4 MLOAD PUSH2 0x13A DUP2 PUSH2 0x106 JUMP JUMPDEST PUSH1 0x20 DUP6 ADD MLOAD SWAP1 SWAP4 POP PUSH2 0x14B DUP2 PUSH2 0x106 JUMP JUMPDEST PUSH1 0x40 DUP6 ADD MLOAD SWAP1 SWAP3 POP PUSH2 0x15C DUP2 PUSH2 0x106 JUMP JUMPDEST DUP1 SWAP2 POP POP SWAP3 POP SWAP3 POP SWAP3 JUMP JUMPDEST PUSH1 0x80 MLOAD PUSH2 0x1223 PUSH2 0x18D PUSH0 CODECOPY PUSH0 DUP2 DUP2 PUSH2 0x26E ADD MSTORE DUP2 DUP2 PUSH2 0x427 ADD MSTORE PUSH2 0x6C2 ADD MSTORE PUSH2 0x1223 PUSH0 RETURN INVALID PUSH1 0x80 PUSH1 0x40 MSTORE PUSH1 0x4 CALLDATASIZE LT PUSH2 0xFD JUMPI PUSH0 CALLDATALOAD PUSH1 0xE0 SHR DUP1 PUSH4 0x8DA5CB5B GT PUSH2 0x92 JUMPI DUP1 PUSH4 0xD0E30DB0 GT PUSH2 0x62 JUMPI DUP1 PUSH4 0xD0E30DB0 EQ PUSH2 0x127 JUMPI DUP1 PUSH4 0xF2FDE38B EQ PUSH2 0x2CE JUMPI DUP1 PUSH4 0xF3FEF3A3 EQ PUSH2 0x2ED JUMPI DUP1 PUSH4 0xF8EA6ECF EQ PUSH2 0x30C JUMPI DUP1 PUSH4 0xFD53992B EQ PUSH2 0x396 JUMPI PUSH0 PUSH0 REVERT JUMPDEST DUP1 PUSH4 0x8DA5CB5B EQ PUSH2 0x241 JUMPI DUP1 PUSH4 0xB0D691FE EQ PUSH2 0x25D JUMPI DUP1 PUSH4 0xB61D27F6 EQ PUSH2 0x290 JUMPI DUP1 PUSH4 0xB9872085 EQ PUSH2 0x2AF JUMPI PUSH0 PUSH0 REVERT JUMPDEST DUP1 PUSH4 0x715018A6 GT PUSH2 0xCD JUMPI DUP1 PUSH4 0x715018A6 EQ PUSH2 0x1B1 JUMPI DUP1 PUSH4 0x76A0931E EQ PUSH2 0x1C5 JUMPI DUP1 PUSH4 0x7B9E618D EQ PUSH2 0x203 JUMPI DUP1 PUSH4 0x8BCE85D6 EQ PUSH2 0x222 JUMPI PUSH0 PUSH0 REVERT JUMPDEST DUP1 PUSH4 0x6721259 EQ PUSH2 0x108 JUMPI DUP1 PUSH4 0xD1CFCAE EQ PUSH2 0x129 JUMPI DUP1 PUSH4 0x19822F7C EQ PUSH2 0x165 JUMPI DUP1 PUSH4 0x3EF476DB EQ PUSH2 0x192 JUMPI PUSH0 PUSH0 REVERT JUMPDEST CALLDATASIZE PUSH2 0x104 JUMPI STOP JUMPDEST PUSH0 PUSH0 REVERT JUMPDEST CALLVALUE DUP1 ISZERO PUSH2 0x113 JUMPI PUSH0 PUSH0 REVERT JUMPDEST POP PUSH2 0x127 PUSH2 0x122 CALLDATASIZE PUSH1 0x4 PUSH2 0xF38 JUMP JUMPDEST PUSH2 0x3B5 JUMP JUMPDEST STOP JUMPDEST CALLVALUE DUP1 ISZERO PUSH2 0x134 JUMPI PUSH0 PUSH0 REVERT JUMPDEST POP PUSH1 0x1 SLOAD PUSH2 0x148 SWAP1 PUSH1 0x1 PUSH1 0x1 PUSH1 0xA0 SHL SUB AND DUP2 JUMP JUMPDEST PUSH1 0x40 MLOAD PUSH1 0x1 PUSH1 0x1 PUSH1 0xA0 SHL SUB SWAP1 SWAP2 AND DUP2 MSTORE PUSH1 0x20 ADD JUMPDEST PUSH1 0x40 MLOAD DUP1 SWAP2 SUB SWAP1 RETURN JUMPDEST CALLVALUE DUP1 ISZERO PUSH2 0x170 JUMPI PUSH0 PUSH0 REVERT JUMPDEST POP PUSH2 0x184 PUSH2 0x17F CALLDATASIZE PUSH1 0x4 PUSH2 0xF6F JUMP JUMPDEST PUSH2 0x41B JUMP JUMPDEST PUSH1 0x40 MLOAD SWAP1 DUP2 MSTORE PUSH1 0x20 ADD PUSH2 0x15C JUMP JUMPDEST CALLVALUE DUP1 ISZERO PUSH2 0x19D JUMPI PUSH0 PUSH0 REVERT JUMPDEST POP PUSH2 0x127 PUSH2 0x1AC CALLDATASIZE PUSH1 0x4 PUSH2 0xFBE JUMP JUMPDEST PUSH2 0x577 JUMP JUMPDEST CALLVALUE DUP1 ISZERO PUSH2 0x1BC JUMPI PUSH0 PUSH0 REVERT JUMPDEST POP PUSH2 0x127 PUSH2 0x5A1 JUMP JUMPDEST CALLVALUE DUP1 ISZERO PUSH2 0x1D0 JUMPI PUSH0 PUSH0 REVERT JUMPDEST POP PUSH2 0x1F3 PUSH2 0x1DF CALLDATASIZE PUSH1 0x4 PUSH2 0xFBE JUMP JUMPDEST PUSH1 0x4 PUSH1 0x20 MSTORE PUSH0 SWAP1 DUP2 MSTORE PUSH1 0x40 SWAP1 KECCAK256 SLOAD PUSH1 0xFF AND DUP2 JUMP JUMPDEST PUSH1 0x40 MLOAD SWAP1 ISZERO ISZERO DUP2 MSTORE PUSH1 0x20 ADD PUSH2 0x15C JUMP JUMPDEST CALLVALUE DUP1 ISZERO PUSH2 0x20E JUMPI PUSH0 PUSH0 REVERT JUMPDEST POP PUSH1 0x2 SLOAD PUSH2 0x148 SWAP1 PUSH1 0x1 PUSH1 0x1 PUSH1 0xA0 SHL SUB AND DUP2 JUMP JUMPDEST CALLVALUE DUP1 ISZERO PUSH2 0x22D JUMPI PUSH0 PUSH0 REVERT JUMPDEST POP PUSH2 0x127 PUSH2 0x23C CALLDATASIZE PUSH1 0x4 PUSH2 0xFD9 JUMP JUMPDEST PUSH2 0x5B4 JUMP JUMPDEST CALLVALUE DUP1 ISZERO PUSH2 0x24C JUMPI PUSH0 PUSH0 REVERT JUMPDEST POP PUSH0 SLOAD PUSH1 0x1 PUSH1 0x1 PUSH1 0xA0 SHL SUB AND PUSH2 0x148 JUMP JUMPDEST CALLVALUE DUP1 ISZERO PUSH2 0x268 JUMPI PUSH0 PUSH0 REVERT JUMPDEST POP PUSH2 0x148 PUSH32 0x0 DUP2 JUMP JUMPDEST CALLVALUE DUP1 ISZERO PUSH2 0x29B JUMPI PUSH0 PUSH0 REVERT JUMPDEST POP PUSH2 0x127 PUSH2 0x2AA CALLDATASIZE PUSH1 0x4 PUSH2 0x1058 JUMP JUMPDEST PUSH2 0x6B7 JUMP JUMPDEST CALLVALUE DUP1 ISZERO PUSH2 0x2BA JUMPI PUSH0 PUSH0 REVERT JUMPDEST POP PUSH2 0x127 PUSH2 0x2C9 CALLDATASIZE PUSH1 0x4 PUSH2 0x10B0 JUMP JUMPDEST PUSH2 0x7A0 JUMP JUMPDEST CALLVALUE DUP1 ISZERO PUSH2 0x2D9 JUMPI PUSH0 PUSH0 REVERT JUMPDEST POP PUSH2 0x127 PUSH2 0x2E8 CALLDATASIZE PUSH1 0x4 PUSH2 0xFBE JUMP JUMPDEST PUSH2 0x7ED JUMP JUMPDEST CALLVALUE DUP1 ISZERO PUSH2 0x2F8 JUMPI PUSH0 PUSH0 REVERT JUMPDEST POP PUSH2 0x127 PUSH2 0x307 CALLDATASIZE PUSH1 0x4 PUSH2 0x10C7 JUMP JUMPDEST PUSH2 0x82A JUMP JUMPDEST CALLVALUE DUP1 ISZERO PUSH2 0x317 JUMPI PUSH0 PUSH0 REVERT JUMPDEST POP PUSH2 0x362 PUSH2 0x326 CALLDATASIZE PUSH1 0x4 PUSH2 0x10B0 JUMP JUMPDEST PUSH1 0x3 PUSH1 0x20 DUP2 SWAP1 MSTORE PUSH0 SWAP2 DUP3 MSTORE PUSH1 0x40 SWAP1 SWAP2 KECCAK256 DUP1 SLOAD PUSH1 0x1 DUP3 ADD SLOAD PUSH1 0x2 DUP4 ADD SLOAD SWAP4 DUP4 ADD SLOAD PUSH1 0x4 SWAP1 SWAP4 ADD SLOAD PUSH1 0x1 PUSH1 0x1 PUSH1 0xA0 SHL SUB SWAP1 SWAP3 AND SWAP4 SWAP1 SWAP3 SWAP1 SWAP2 PUSH1 0xFF AND DUP6 JUMP JUMPDEST PUSH1 0x40 DUP1 MLOAD PUSH1 0x1 PUSH1 0x1 PUSH1 0xA0 SHL SUB SWAP1 SWAP7 AND DUP7 MSTORE PUSH1 0x20 DUP7 ADD SWAP5 SWAP1 SWAP5 MSTORE SWAP3 DUP5 ADD SWAP2 SWAP1 SWAP2 MSTORE PUSH1 0x60 DUP4 ADD MSTORE ISZERO ISZERO PUSH1 0x80 DUP3 ADD MSTORE PUSH1 0xA0 ADD PUSH2 0x15C JUMP JUMPDEST CALLVALUE DUP1 ISZERO PUSH2 0x3A1 JUMPI PUSH0 PUSH0 REVERT JUMPDEST POP PUSH2 0x127 PUSH2 0x3B0 CALLDATASIZE PUSH1 0x4 PUSH2 0x10F1 JUMP JUMPDEST PUSH2 0x8E1 JUMP JUMPDEST PUSH2 0x3BD PUSH2 0xC07 JUMP JUMPDEST PUSH1 0x1 PUSH1 0x1 PUSH1 0xA0 SHL SUB DUP3 AND PUSH0 DUP2 DUP2 MSTORE PUSH1 0x4 PUSH1 0x20 SWAP1 DUP2 MSTORE PUSH1 0x40 SWAP2 DUP3 SWAP1 KECCAK256 DUP1 SLOAD PUSH1 0xFF NOT AND DUP6 ISZERO ISZERO SWAP1 DUP2 OR SWAP1 SWAP2 SSTORE SWAP2 MLOAD SWAP2 DUP3 MSTORE PUSH32 0xE2B63F0F9F931CF6CC2823929022126189A4981700F4B44647FD3696F01340B8 SWAP2 ADD PUSH1 0x40 MLOAD DUP1 SWAP2 SUB SWAP1 LOG2 POP POP JUMP JUMPDEST PUSH0 CALLER PUSH1 0x1 PUSH1 0x1 PUSH1 0xA0 SHL SUB PUSH32 0x0 AND EQ PUSH2 0x494 JUMPI PUSH1 0x40 MLOAD PUSH3 0x461BCD PUSH1 0xE5 SHL DUP2 MSTORE PUSH1 0x20 PUSH1 0x4 DUP3 ADD MSTORE PUSH1 0x18 PUSH1 0x24 DUP3 ADD MSTORE PUSH24 0x10D85B1B195C881A5CC81B9BDD08115B9D1C9E541BDA5B9D PUSH1 0x42 SHL PUSH1 0x44 DUP3 ADD MSTORE PUSH1 0x64 ADD JUMPDEST PUSH1 0x40 MLOAD DUP1 SWAP2 SUB SWAP1 REVERT JUMPDEST PUSH2 0x4EA PUSH2 0x4A5 PUSH2 0x100 DUP7 ADD DUP7 PUSH2 0x114D JUMP JUMPDEST DUP1 DUP1 PUSH1 0x1F ADD PUSH1 0x20 DUP1 SWAP2 DIV MUL PUSH1 0x20 ADD PUSH1 0x40 MLOAD SWAP1 DUP2 ADD PUSH1 0x40 MSTORE DUP1 SWAP4 SWAP3 SWAP2 SWAP1 DUP2 DUP2 MSTORE PUSH1 0x20 ADD DUP4 DUP4 DUP1 DUP3 DUP5 CALLDATACOPY PUSH0 SWAP3 ADD SWAP2 SWAP1 SWAP2 MSTORE POP PUSH2 0x4E4 SWAP3 POP DUP8 SWAP2 POP PUSH2 0xC33 SWAP1 POP JUMP JUMPDEST SWAP1 PUSH2 0xC65 JUMP JUMPDEST PUSH1 0x1 PUSH1 0x1 PUSH1 0xA0 SHL SUB AND PUSH2 0x504 PUSH0 SLOAD PUSH1 0x1 PUSH1 0x1 PUSH1 0xA0 SHL SUB AND SWAP1 JUMP JUMPDEST PUSH1 0x1 PUSH1 0x1 PUSH1 0xA0 SHL SUB AND EQ PUSH2 0x51A JUMPI POP PUSH1 0x1 PUSH2 0x570 JUMP JUMPDEST DUP2 ISZERO PUSH2 0x56D JUMPI PUSH1 0x40 MLOAD PUSH0 SWAP1 CALLER SWAP1 PUSH0 NOT SWAP1 DUP6 SWAP1 DUP5 DUP2 DUP2 DUP2 DUP6 DUP9 DUP9 CALL SWAP4 POP POP POP POP RETURNDATASIZE DUP1 PUSH0 DUP2 EQ PUSH2 0x563 JUMPI PUSH1 0x40 MLOAD SWAP2 POP PUSH1 0x1F NOT PUSH1 0x3F RETURNDATASIZE ADD AND DUP3 ADD PUSH1 0x40 MSTORE RETURNDATASIZE DUP3 MSTORE RETURNDATASIZE PUSH0 PUSH1 0x20 DUP5 ADD RETURNDATACOPY PUSH2 0x568 JUMP JUMPDEST PUSH1 0x60 SWAP2 POP JUMPDEST POP POP POP POP JUMPDEST POP PUSH0 JUMPDEST SWAP4 SWAP3 POP POP POP JUMP JUMPDEST PUSH2 0x57F PUSH2 0xC07 JUMP JUMPDEST PUSH1 0x2 DUP1 SLOAD PUSH1 0x1 PUSH1 0x1 PUSH1 0xA0 SHL SUB NOT AND PUSH1 0x1 PUSH1 0x1 PUSH1 0xA0 SHL SUB SWAP3 SWAP1 SWAP3 AND SWAP2 SWAP1 SWAP2 OR SWAP1 SSTORE JUMP JUMPDEST PUSH2 0x5A9 PUSH2 0xC07 JUMP JUMPDEST PUSH2 0x5B2 PUSH0 PUSH2 0xC8F JUMP JUMPDEST JUMP JUMPDEST PUSH2 0x5BC PUSH2 0xC07 JUMP JUMPDEST PUSH1 0x40 MLOAD DUP1 PUSH1 0xA0 ADD PUSH1 0x40 MSTORE DUP1 DUP5 PUSH1 0x1 PUSH1 0x1 PUSH1 0xA0 SHL SUB AND DUP2 MSTORE PUSH1 0x20 ADD DUP3 TIMESTAMP PUSH2 0x5E2 SWAP2 SWAP1 PUSH2 0x1190 JUMP JUMPDEST DUP2 MSTORE PUSH1 0x20 DUP1 DUP3 ADD DUP6 SWAP1 MSTORE PUSH0 PUSH1 0x40 DUP1 DUP5 ADD DUP3 SWAP1 MSTORE PUSH1 0x60 SWAP4 DUP5 ADD DUP3 SWAP1 MSTORE DUP9 DUP3 MSTORE PUSH1 0x3 DUP1 DUP5 MSTORE SWAP2 DUP2 SWAP1 KECCAK256 DUP6 MLOAD DUP2 SLOAD PUSH1 0x1 PUSH1 0x1 PUSH1 0xA0 SHL SUB NOT AND PUSH1 0x1 PUSH1 0x1 PUSH1 0xA0 SHL SUB SWAP1 SWAP2 AND OR DUP2 SSTORE SWAP3 DUP6 ADD MLOAD PUSH1 0x1 DUP5 ADD SSTORE DUP5 ADD MLOAD PUSH1 0x2 DUP4 ADD SSTORE SWAP2 DUP4 ADD MLOAD SWAP2 DUP2 ADD SWAP2 SWAP1 SWAP2 SSTORE PUSH1 0x80 SWAP1 SWAP2 ADD MLOAD PUSH1 0x4 SWAP1 SWAP2 ADD DUP1 SLOAD PUSH1 0xFF NOT AND SWAP2 ISZERO ISZERO SWAP2 SWAP1 SWAP2 OR SWAP1 SSTORE DUP4 PUSH32 0x5C9807DC54A8ACE65FF99D37F06FE0CF7A770A7AC7BF50EDFD1D7766071FEBEB DUP5 DUP5 PUSH2 0x689 DUP6 TIMESTAMP PUSH2 0x1190 JUMP JUMPDEST PUSH1 0x40 DUP1 MLOAD PUSH1 0x1 PUSH1 0x1 PUSH1 0xA0 SHL SUB SWAP1 SWAP5 AND DUP5 MSTORE PUSH1 0x20 DUP5 ADD SWAP3 SWAP1 SWAP3 MSTORE SWAP1 DUP3 ADD MSTORE PUSH1 0x60 ADD PUSH1 0x40 MLOAD DUP1 SWAP2 SUB SWAP1 LOG2 POP POP POP POP JUMP JUMPDEST CALLER PUSH1 0x1 PUSH1 0x1 PUSH1 0xA0 SHL SUB PUSH32 0x0 AND EQ PUSH2 0x72A JUMPI PUSH1 0x40 MLOAD PUSH3 0x461BCD PUSH1 0xE5 SHL DUP2 MSTORE PUSH1 0x20 PUSH1 0x4 DUP3 ADD MSTORE PUSH1 0x18 PUSH1 0x24 DUP3 ADD MSTORE PUSH24 0x10D85B1B195C881A5CC81B9BDD08115B9D1C9E541BDA5B9D PUSH1 0x42 SHL PUSH1 0x44 DUP3 ADD MSTORE PUSH1 0x64 ADD PUSH2 0x48B JUMP JUMPDEST PUSH0 PUSH0 DUP6 PUSH1 0x1 PUSH1 0x1 PUSH1 0xA0 SHL SUB AND DUP6 DUP6 DUP6 PUSH1 0x40 MLOAD PUSH2 0x747 SWAP3 SWAP2 SWAP1 PUSH2 0x11AF JUMP JUMPDEST PUSH0 PUSH1 0x40 MLOAD DUP1 DUP4 SUB DUP2 DUP6 DUP8 GAS CALL SWAP3 POP POP POP RETURNDATASIZE DUP1 PUSH0 DUP2 EQ PUSH2 0x781 JUMPI PUSH1 0x40 MLOAD SWAP2 POP PUSH1 0x1F NOT PUSH1 0x3F RETURNDATASIZE ADD AND DUP3 ADD PUSH1 0x40 MSTORE RETURNDATASIZE DUP3 MSTORE RETURNDATASIZE PUSH0 PUSH1 0x20 DUP5 ADD RETURNDATACOPY PUSH2 0x786 JUMP JUMPDEST PUSH1 0x60 SWAP2 POP JUMPDEST POP SWAP2 POP SWAP2 POP DUP2 PUSH2 0x798 JUMPI DUP1 MLOAD PUSH1 0x20 DUP3 ADD REVERT JUMPDEST POP POP POP POP POP POP JUMP JUMPDEST PUSH2 0x7A8 PUSH2 0xC07 JUMP JUMPDEST PUSH0 DUP2 DUP2 MSTORE PUSH1 0x3 PUSH1 0x20 MSTORE PUSH1 0x40 DUP1 DUP3 KECCAK256 PUSH1 0x4 ADD DUP1 SLOAD PUSH1 0xFF NOT AND PUSH1 0x1 OR SWAP1 SSTORE MLOAD DUP3 SWAP2 PUSH32 0x4474EAECC0BE9619471FDA1641313A4A5DC8513B52CFEB827ABF4E543BBD597E SWAP2 LOG2 POP JUMP JUMPDEST PUSH2 0x7F5 PUSH2 0xC07 JUMP JUMPDEST PUSH1 0x1 PUSH1 0x1 PUSH1 0xA0 SHL SUB DUP2 AND PUSH2 0x81E JUMPI PUSH1 0x40 MLOAD PUSH4 0x1E4FBDF7 PUSH1 0xE0 SHL DUP2 MSTORE PUSH0 PUSH1 0x4 DUP3 ADD MSTORE PUSH1 0x24 ADD PUSH2 0x48B JUMP JUMPDEST PUSH2 0x827 DUP2 PUSH2 0xC8F JUMP JUMPDEST POP JUMP JUMPDEST PUSH2 0x832 PUSH2 0xC07 JUMP JUMPDEST PUSH1 0x1 PUSH1 0x1 PUSH1 0xA0 SHL SUB DUP3 AND PUSH2 0x86F JUMPI PUSH1 0x40 MLOAD CALLER SWAP1 DUP3 ISZERO PUSH2 0x8FC MUL SWAP1 DUP4 SWAP1 PUSH0 DUP2 DUP2 DUP2 DUP6 DUP9 DUP9 CALL SWAP4 POP POP POP POP ISZERO DUP1 ISZERO PUSH2 0x86A JUMPI RETURNDATASIZE PUSH0 PUSH0 RETURNDATACOPY RETURNDATASIZE PUSH0 REVERT JUMPDEST POP POP POP JUMP JUMPDEST PUSH1 0x40 MLOAD PUSH4 0xA9059CBB PUSH1 0xE0 SHL DUP2 MSTORE CALLER PUSH1 0x4 DUP3 ADD MSTORE PUSH1 0x24 DUP2 ADD DUP3 SWAP1 MSTORE PUSH1 0x1 PUSH1 0x1 PUSH1 0xA0 SHL SUB DUP4 AND SWAP1 PUSH4 0xA9059CBB SWAP1 PUSH1 0x44 ADD PUSH1 0x20 PUSH1 0x40 MLOAD DUP1 DUP4 SUB DUP2 PUSH0 DUP8 GAS CALL ISZERO DUP1 ISZERO PUSH2 0x8B9 JUMPI RETURNDATASIZE PUSH0 PUSH0 RETURNDATACOPY RETURNDATASIZE PUSH0 REVERT JUMPDEST POP POP POP POP PUSH1 0x40 MLOAD RETURNDATASIZE PUSH1 0x1F NOT PUSH1 0x1F DUP3 ADD AND DUP3 ADD DUP1 PUSH1 0x40 MSTORE POP DUP2 ADD SWAP1 PUSH2 0x86A SWAP2 SWAP1 PUSH2 0x11BE JUMP JUMPDEST POP POP JUMP JUMPDEST PUSH2 0x8E9 PUSH2 0xCDE JUMP JUMPDEST PUSH0 DUP6 DUP2 MSTORE PUSH1 0x3 PUSH1 0x20 MSTORE PUSH1 0x40 SWAP1 KECCAK256 PUSH1 0x4 DUP2 ADD SLOAD PUSH1 0xFF AND ISZERO PUSH2 0x93D JUMPI PUSH1 0x40 MLOAD PUSH3 0x461BCD PUSH1 0xE5 SHL DUP2 MSTORE PUSH1 0x20 PUSH1 0x4 DUP3 ADD MSTORE PUSH1 0xF PUSH1 0x24 DUP3 ADD MSTORE PUSH15 0x14D95CDCDA5BDB881C995D9BDAD959 PUSH1 0x8A SHL PUSH1 0x44 DUP3 ADD MSTORE PUSH1 0x64 ADD PUSH2 0x48B JUMP JUMPDEST DUP1 PUSH1 0x1 ADD SLOAD TIMESTAMP GT ISZERO PUSH2 0x983 JUMPI PUSH1 0x40 MLOAD PUSH3 0x461BCD PUSH1 0xE5 SHL DUP2 MSTORE PUSH1 0x20 PUSH1 0x4 DUP3 ADD MSTORE PUSH1 0xF PUSH1 0x24 DUP3 ADD MSTORE PUSH15 0x14D95CDCDA5BDB88195E1C1A5C9959 PUSH1 0x8A SHL PUSH1 0x44 DUP3 ADD MSTORE PUSH1 0x64 ADD PUSH2 0x48B JUMP JUMPDEST DUP1 PUSH1 0x2 ADD SLOAD DUP6 DUP3 PUSH1 0x3 ADD SLOAD PUSH2 0x998 SWAP2 SWAP1 PUSH2 0x1190 JUMP JUMPDEST GT ISZERO PUSH2 0x9D8 JUMPI PUSH1 0x40 MLOAD PUSH3 0x461BCD PUSH1 0xE5 SHL DUP2 MSTORE PUSH1 0x20 PUSH1 0x4 DUP3 ADD MSTORE PUSH1 0xF PUSH1 0x24 DUP3 ADD MSTORE PUSH15 0x109D5919D95D08195E18D959591959 PUSH1 0x8A SHL PUSH1 0x44 DUP3 ADD MSTORE PUSH1 0x64 ADD PUSH2 0x48B JUMP JUMPDEST PUSH1 0x40 MLOAD PUSH12 0xFFFFFFFFFFFFFFFFFFFFFFFF NOT ADDRESS PUSH1 0x60 SHL AND PUSH1 0x20 DUP3 ADD MSTORE PUSH1 0x34 DUP2 ADD DUP8 SWAP1 MSTORE PUSH1 0x54 DUP2 ADD DUP7 SWAP1 MSTORE PUSH1 0x74 DUP2 ADD DUP6 SWAP1 MSTORE PUSH0 SWAP1 PUSH1 0x94 ADD PUSH1 0x40 MLOAD PUSH1 0x20 DUP2 DUP4 SUB SUB DUP2 MSTORE SWAP1 PUSH1 0x40 MSTORE DUP1 MLOAD SWAP1 PUSH1 0x20 ADD KECCAK256 SWAP1 POP PUSH0 PUSH2 0xA6A DUP6 DUP6 DUP1 DUP1 PUSH1 0x1F ADD PUSH1 0x20 DUP1 SWAP2 DIV MUL PUSH1 0x20 ADD PUSH1 0x40 MLOAD SWAP1 DUP2 ADD PUSH1 0x40 MSTORE DUP1 SWAP4 SWAP3 SWAP2 SWAP1 DUP2 DUP2 MSTORE PUSH1 0x20 ADD DUP4 DUP4 DUP1 DUP3 DUP5 CALLDATACOPY PUSH0 SWAP3 ADD SWAP2 SWAP1 SWAP2 MSTORE POP PUSH2 0x4E4 SWAP3 POP DUP7 SWAP2 POP PUSH2 0xC33 SWAP1 POP JUMP JUMPDEST DUP4 SLOAD SWAP1 SWAP2 POP PUSH1 0x1 PUSH1 0x1 PUSH1 0xA0 SHL SUB DUP1 DUP4 AND SWAP2 AND EQ PUSH2 0xAC9 JUMPI PUSH1 0x40 MLOAD PUSH3 0x461BCD PUSH1 0xE5 SHL DUP2 MSTORE PUSH1 0x20 PUSH1 0x4 DUP3 ADD MSTORE PUSH1 0x17 PUSH1 0x24 DUP3 ADD MSTORE PUSH32 0x496E76616C6964206167656E74207369676E6174757265000000000000000000 PUSH1 0x44 DUP3 ADD MSTORE PUSH1 0x64 ADD PUSH2 0x48B JUMP JUMPDEST DUP7 DUP4 PUSH1 0x3 ADD PUSH0 DUP3 DUP3 SLOAD PUSH2 0xADC SWAP2 SWAP1 PUSH2 0x1190 JUMP JUMPDEST SWAP1 SWAP2 SSTORE POP POP PUSH1 0x2 SLOAD PUSH1 0x40 MLOAD PUSH4 0xA9059CBB PUSH1 0xE0 SHL DUP2 MSTORE CALLER PUSH1 0x4 DUP3 ADD MSTORE PUSH1 0x24 DUP2 ADD DUP10 SWAP1 MSTORE PUSH1 0x1 PUSH1 0x1 PUSH1 0xA0 SHL SUB SWAP1 SWAP2 AND SWAP1 PUSH4 0xA9059CBB SWAP1 PUSH1 0x44 ADD PUSH1 0x20 PUSH1 0x40 MLOAD DUP1 DUP4 SUB DUP2 PUSH0 DUP8 GAS CALL ISZERO DUP1 ISZERO PUSH2 0xB2F JUMPI RETURNDATASIZE PUSH0 PUSH0 RETURNDATACOPY RETURNDATASIZE PUSH0 REVERT JUMPDEST POP POP POP POP PUSH1 0x40 MLOAD RETURNDATASIZE PUSH1 0x1F NOT PUSH1 0x1F DUP3 ADD AND DUP3 ADD DUP1 PUSH1 0x40 MSTORE POP DUP2 ADD SWAP1 PUSH2 0xB53 SWAP2 SWAP1 PUSH2 0x11BE JUMP JUMPDEST PUSH2 0xB97 JUMPI PUSH1 0x40 MLOAD PUSH3 0x461BCD PUSH1 0xE5 SHL DUP2 MSTORE PUSH1 0x20 PUSH1 0x4 DUP3 ADD MSTORE PUSH1 0x15 PUSH1 0x24 DUP3 ADD MSTORE PUSH21 0x151BDAD95B881D1C985B9CD9995C8819985A5B1959 PUSH1 0x5A SHL PUSH1 0x44 DUP3 ADD MSTORE PUSH1 0x64 ADD PUSH2 0x48B JUMP JUMPDEST PUSH1 0x40 DUP1 MLOAD DUP9 DUP2 MSTORE PUSH1 0x20 DUP2 ADD DUP9 SWAP1 MSTORE CALLER SWAP2 DUP11 SWAP2 PUSH32 0x28B6A71063B724241DEF20135281EC479CA2A4DB4FDDE4B611BEC7E9FFA27F74 SWAP2 ADD PUSH1 0x40 MLOAD DUP1 SWAP2 SUB SWAP1 LOG3 POP POP POP PUSH2 0xC00 PUSH1 0x1 PUSH32 0x9B779B17422D0DF92223018B32B4D1FA46E071723D6817E2486D003BECC55F00 SSTORE JUMP JUMPDEST POP POP POP POP POP JUMP JUMPDEST PUSH0 SLOAD PUSH1 0x1 PUSH1 0x1 PUSH1 0xA0 SHL SUB AND CALLER EQ PUSH2 0x5B2 JUMPI PUSH1 0x40 MLOAD PUSH4 0x118CDAA7 PUSH1 0xE0 SHL DUP2 MSTORE CALLER PUSH1 0x4 DUP3 ADD MSTORE PUSH1 0x24 ADD PUSH2 0x48B JUMP JUMPDEST PUSH32 0x19457468657265756D205369676E6564204D6573736167653A0A333200000000 PUSH0 SWAP1 DUP2 MSTORE PUSH1 0x1C SWAP2 SWAP1 SWAP2 MSTORE PUSH1 0x3C SWAP1 KECCAK256 SWAP1 JUMP JUMPDEST PUSH0 PUSH0 PUSH0 PUSH0 PUSH2 0xC73 DUP7 DUP7 PUSH2 0xD0C JUMP JUMPDEST SWAP3 POP SWAP3 POP SWAP3 POP PUSH2 0xC83 DUP3 DUP3 PUSH2 0xD55 JUMP JUMPDEST POP SWAP1 SWAP2 POP POP JUMPDEST SWAP3 SWAP2 POP POP JUMP JUMPDEST PUSH0 DUP1 SLOAD PUSH1 0x1 PUSH1 0x1 PUSH1 0xA0 SHL SUB DUP4 DUP2 AND PUSH1 0x1 PUSH1 0x1 PUSH1 0xA0 SHL SUB NOT DUP4 AND DUP2 OR DUP5 SSTORE PUSH1 0x40 MLOAD SWAP2 SWAP1 SWAP3 AND SWAP3 DUP4 SWAP2 PUSH32 0x8BE0079C531659141344CD1FD0A4F28419497F9722A3DAAFE3B4186F6B6457E0 SWAP2 SWAP1 LOG3 POP POP JUMP JUMPDEST PUSH2 0xCE6 PUSH2 0xE0D JUMP JUMPDEST PUSH1 0x2 PUSH32 0x9B779B17422D0DF92223018B32B4D1FA46E071723D6817E2486D003BECC55F00 SSTORE JUMP JUMPDEST PUSH0 PUSH0 PUSH0 DUP4 MLOAD PUSH1 0x41 SUB PUSH2 0xD43 JUMPI PUSH1 0x20 DUP5 ADD MLOAD PUSH1 0x40 DUP6 ADD MLOAD PUSH1 0x60 DUP7 ADD MLOAD PUSH0 BYTE PUSH2 0xD35 DUP9 DUP3 DUP6 DUP6 PUSH2 0xE4F JUMP JUMPDEST SWAP6 POP SWAP6 POP SWAP6 POP POP POP POP PUSH2 0xD4E JUMP JUMPDEST POP POP DUP2 MLOAD PUSH0 SWAP2 POP PUSH1 0x2 SWAP1 JUMPDEST SWAP3 POP SWAP3 POP SWAP3 JUMP JUMPDEST PUSH0 DUP3 PUSH1 0x3 DUP2 GT ISZERO PUSH2 0xD68 JUMPI PUSH2 0xD68 PUSH2 0x11D9 JUMP JUMPDEST SUB PUSH2 0xD71 JUMPI POP POP JUMP JUMPDEST PUSH1 0x1 DUP3 PUSH1 0x3 DUP2 GT ISZERO PUSH2 0xD85 JUMPI PUSH2 0xD85 PUSH2 0x11D9 JUMP JUMPDEST SUB PUSH2 0xDA3 JUMPI PUSH1 0x40 MLOAD PUSH4 0xF645EEDF PUSH1 0xE0 SHL DUP2 MSTORE PUSH1 0x4 ADD PUSH1 0x40 MLOAD DUP1 SWAP2 SUB SWAP1 REVERT JUMPDEST PUSH1 0x2 DUP3 PUSH1 0x3 DUP2 GT ISZERO PUSH2 0xDB7 JUMPI PUSH2 0xDB7 PUSH2 0x11D9 JUMP JUMPDEST SUB PUSH2 0xDD8 JUMPI PUSH1 0x40 MLOAD PUSH4 0xFCE698F7 PUSH1 0xE0 SHL DUP2 MSTORE PUSH1 0x4 DUP2 ADD DUP3 SWAP1 MSTORE PUSH1 0x24 ADD PUSH2 0x48B JUMP JUMPDEST PUSH1 0x3 DUP3 PUSH1 0x3 DUP2 GT ISZERO PUSH2 0xDEC JUMPI PUSH2 0xDEC PUSH2 0x11D9 JUMP JUMPDEST SUB PUSH2 0x8DD JUMPI PUSH1 0x40 MLOAD PUSH4 0x35E2F383 PUSH1 0xE2 SHL DUP2 MSTORE PUSH1 0x4 DUP2 ADD DUP3 SWAP1 MSTORE PUSH1 0x24 ADD PUSH2 0x48B JUMP JUMPDEST PUSH32 0x9B779B17422D0DF92223018B32B4D1FA46E071723D6817E2486D003BECC55F00 SLOAD PUSH1 0x2 SUB PUSH2 0x5B2 JUMPI PUSH1 0x40 MLOAD PUSH4 0x3EE5AEB5 PUSH1 0xE0 SHL DUP2 MSTORE PUSH1 0x4 ADD PUSH1 0x40 MLOAD DUP1 SWAP2 SUB SWAP1 REVERT JUMPDEST PUSH0 DUP1 DUP1 PUSH32 0x7FFFFFFFFFFFFFFFFFFFFFFFFFFFFFFF5D576E7357A4501DDFE92F46681B20A0 DUP5 GT ISZERO PUSH2 0xE88 JUMPI POP PUSH0 SWAP2 POP PUSH1 0x3 SWAP1 POP DUP3 PUSH2 0xF0D JUMP JUMPDEST PUSH1 0x40 DUP1 MLOAD PUSH0 DUP1 DUP3 MSTORE PUSH1 0x20 DUP3 ADD DUP1 DUP5 MSTORE DUP11 SWAP1 MSTORE PUSH1 0xFF DUP10 AND SWAP3 DUP3 ADD SWAP3 SWAP1 SWAP3 MSTORE PUSH1 0x60 DUP2 ADD DUP8 SWAP1 MSTORE PUSH1 0x80 DUP2 ADD DUP7 SWAP1 MSTORE PUSH1 0x1 SWAP1 PUSH1 0xA0 ADD PUSH1 0x20 PUSH1 0x40 MLOAD PUSH1 0x20 DUP2 SUB SWAP1 DUP1 DUP5 SUB SWAP1 DUP6 GAS STATICCALL ISZERO DUP1 ISZERO PUSH2 0xED9 JUMPI RETURNDATASIZE PUSH0 PUSH0 RETURNDATACOPY RETURNDATASIZE PUSH0 REVERT JUMPDEST POP POP PUSH1 0x40 MLOAD PUSH1 0x1F NOT ADD MLOAD SWAP2 POP POP PUSH1 0x1 PUSH1 0x1 PUSH1 0xA0 SHL SUB DUP2 AND PUSH2 0xF04 JUMPI POP PUSH0 SWAP3 POP PUSH1 0x1 SWAP2 POP DUP3 SWAP1 POP PUSH2 0xF0D JUMP JUMPDEST SWAP3 POP PUSH0 SWAP2 POP DUP2 SWAP1 POP JUMPDEST SWAP5 POP SWAP5 POP SWAP5 SWAP2 POP POP JUMP JUMPDEST PUSH1 0x1 PUSH1 0x1 PUSH1 0xA0 SHL SUB DUP2 AND DUP2 EQ PUSH2 0x827 JUMPI PUSH0 PUSH0 REVERT JUMPDEST DUP1 ISZERO ISZERO DUP2 EQ PUSH2 0x827 JUMPI PUSH0 PUSH0 REVERT JUMPDEST PUSH0 PUSH0 PUSH1 0x40 DUP4 DUP6 SUB SLT ISZERO PUSH2 0xF49 JUMPI PUSH0 PUSH0 REVERT JUMPDEST DUP3 CALLDATALOAD PUSH2 0xF54 DUP2 PUSH2 0xF17 JUMP JUMPDEST SWAP2 POP PUSH1 0x20 DUP4 ADD CALLDATALOAD PUSH2 0xF64 DUP2 PUSH2 0xF2B JUMP JUMPDEST DUP1 SWAP2 POP POP SWAP3 POP SWAP3 SWAP1 POP JUMP JUMPDEST PUSH0 PUSH0 PUSH0 PUSH1 0x60 DUP5 DUP7 SUB SLT ISZERO PUSH2 0xF81 JUMPI PUSH0 PUSH0 REVERT JUMPDEST DUP4 CALLDATALOAD PUSH8 0xFFFFFFFFFFFFFFFF DUP2 GT ISZERO PUSH2 0xF97 JUMPI PUSH0 PUSH0 REVERT JUMPDEST DUP5 ADD PUSH2 0x120 DUP2 DUP8 SUB SLT ISZERO PUSH2 0xFA9 JUMPI PUSH0 PUSH0 REVERT JUMPDEST SWAP6 PUSH1 0x20 DUP6 ADD CALLDATALOAD SWAP6 POP PUSH1 0x40 SWAP1 SWAP5 ADD CALLDATALOAD SWAP4 SWAP3 POP POP POP JUMP JUMPDEST PUSH0 PUSH1 0x20 DUP3 DUP5 SUB SLT ISZERO PUSH2 0xFCE JUMPI PUSH0 PUSH0 REVERT JUMPDEST DUP2 CALLDATALOAD PUSH2 0x570 DUP2 PUSH2 0xF17 JUMP JUMPDEST PUSH0 PUSH0 PUSH0 PUSH0 PUSH1 0x80 DUP6 DUP8 SUB SLT ISZERO PUSH2 0xFEC JUMPI PUSH0 PUSH0 REVERT JUMPDEST DUP5 CALLDATALOAD SWAP4 POP PUSH1 0x20 DUP6 ADD CALLDATALOAD PUSH2 0xFFE DUP2 PUSH2 0xF17 JUMP JUMPDEST SWAP4 SWAP7 SWAP4 SWAP6 POP POP POP POP PUSH1 0x40 DUP3 ADD CALLDATALOAD SWAP2 PUSH1 0x60 ADD CALLDATALOAD SWAP1 JUMP JUMPDEST PUSH0 PUSH0 DUP4 PUSH1 0x1F DUP5 ADD SLT PUSH2 0x1023 JUMPI PUSH0 PUSH0 REVERT JUMPDEST POP DUP2 CALLDATALOAD PUSH8 0xFFFFFFFFFFFFFFFF DUP2 GT ISZERO PUSH2 0x103A JUMPI PUSH0 PUSH0 REVERT JUMPDEST PUSH1 0x20 DUP4 ADD SWAP2 POP DUP4 PUSH1 0x20 DUP3 DUP6 ADD ADD GT ISZERO PUSH2 0x1051 JUMPI PUSH0 PUSH0 REVERT JUMPDEST SWAP3 POP SWAP3 SWAP1 POP JUMP JUMPDEST PUSH0 PUSH0 PUSH0 PUSH0 PUSH1 0x60 DUP6 DUP8 SUB SLT ISZERO PUSH2 0x106B JUMPI PUSH0 PUSH0 REVERT JUMPDEST DUP5 CALLDATALOAD PUSH2 0x1076 DUP2 PUSH2 0xF17 JUMP JUMPDEST SWAP4 POP PUSH1 0x20 DUP6 ADD CALLDATALOAD SWAP3 POP PUSH1 0x40 DUP6 ADD CALLDATALOAD PUSH8 0xFFFFFFFFFFFFFFFF DUP2 GT ISZERO PUSH2 0x1098 JUMPI PUSH0 PUSH0 REVERT JUMPDEST PUSH2 0x10A4 DUP8 DUP3 DUP9 ADD PUSH2 0x1013 JUMP JUMPDEST SWAP6 SWAP9 SWAP5 SWAP8 POP SWAP6 POP POP POP POP JUMP JUMPDEST PUSH0 PUSH1 0x20 DUP3 DUP5 SUB SLT ISZERO PUSH2 0x10C0 JUMPI PUSH0 PUSH0 REVERT JUMPDEST POP CALLDATALOAD SWAP2 SWAP1 POP JUMP JUMPDEST PUSH0 PUSH0 PUSH1 0x40 DUP4 DUP6 SUB SLT ISZERO PUSH2 0x10D8 JUMPI PUSH0 PUSH0 REVERT JUMPDEST DUP3 CALLDATALOAD PUSH2 0x10E3 DUP2 PUSH2 0xF17 JUMP JUMPDEST SWAP5 PUSH1 0x20 SWAP4 SWAP1 SWAP4 ADD CALLDATALOAD SWAP4 POP POP POP JUMP JUMPDEST PUSH0 PUSH0 PUSH0 PUSH0 PUSH0 PUSH1 0x80 DUP7 DUP9 SUB SLT ISZERO PUSH2 0x1105 JUMPI PUSH0 PUSH0 REVERT JUMPDEST DUP6 CALLDATALOAD SWAP5 POP PUSH1 0x20 DUP7 ADD CALLDATALOAD SWAP4 POP PUSH1 0x40 DUP7 ADD CALLDATALOAD SWAP3 POP PUSH1 0x60 DUP7 ADD CALLDATALOAD PUSH8 0xFFFFFFFFFFFFFFFF DUP2 GT ISZERO PUSH2 0x1130 JUMPI PUSH0 PUSH0 REVERT JUMPDEST PUSH2 0x113C DUP9 DUP3 DUP10 ADD PUSH2 0x1013 JUMP JUMPDEST SWAP7 SWAP10 SWAP6 SWAP9 POP SWAP4 SWAP7 POP SWAP3 SWAP5 SWAP4 SWAP3 POP POP POP JUMP JUMPDEST PUSH0 PUSH0 DUP4 CALLDATALOAD PUSH1 0x1E NOT DUP5 CALLDATASIZE SUB ADD DUP2 SLT PUSH2 0x1162 JUMPI PUSH0 PUSH0 REVERT JUMPDEST DUP4 ADD DUP1 CALLDATALOAD SWAP2 POP PUSH8 0xFFFFFFFFFFFFFFFF DUP3 GT ISZERO PUSH2 0x117C JUMPI PUSH0 PUSH0 REVERT JUMPDEST PUSH1 0x20 ADD SWAP2 POP CALLDATASIZE DUP2 SWAP1 SUB DUP3 SGT ISZERO PUSH2 0x1051 JUMPI PUSH0 PUSH0 REVERT JUMPDEST DUP1 DUP3 ADD DUP1 DUP3 GT ISZERO PUSH2 0xC89 JUMPI PUSH4 0x4E487B71 PUSH1 0xE0 SHL PUSH0 MSTORE PUSH1 0x11 PUSH1 0x4 MSTORE PUSH1 0x24 PUSH0 REVERT JUMPDEST DUP2 DUP4 DUP3 CALLDATACOPY PUSH0 SWAP2 ADD SWAP1 DUP2 MSTORE SWAP2 SWAP1 POP JUMP JUMPDEST PUSH0 PUSH1 0x20 DUP3 DUP5 SUB SLT ISZERO PUSH2 0x11CE JUMPI PUSH0 PUSH0 REVERT JUMPDEST DUP2 MLOAD PUSH2 0x570 DUP2 PUSH2 0xF2B JUMP JUMPDEST PUSH4 0x4E487B71 PUSH1 0xE0 SHL PUSH0 MSTORE PUSH1 0x21 PUSH1 0x4 MSTORE PUSH1 0x24 PUSH0 REVERT INVALID LOG2 PUSH5 0x6970667358 0x22 SLT KECCAK256 DUP10 0x1F DUP12 0x2B 0xCB 0xE1 SHR SUB 0xBF 0x2B SWAP9 0xA6 SWAP7 EXTCODECOPY ADDRESS COINBASE MUL 0xBE 0xDE PUSH11 0x3081EF85F059A93139DA18 SELFDESTRUCT PUSH5 0x736F6C6343 STOP ADDMOD SHR STOP CALLER "},"methodIdentifiers":{"agentRegistry()":"0d1cfcae","agentSessions(uint256)":"f8ea6ecf","authorizeSession(uint256,address,uint256,uint256)":"8bce85d6","claimM2MPayment(uint256,uint256,bytes32,bytes)":"fd53992b","deposit()":"d0e30db0","entryPoint()":"b0d691fe","execute(address,uint256,bytes)":"b61d27f6","owner()":"8da5cb5b","renounceOwnership()":"715018a6","revokeSession(uint256)":"b9872085","setSettlementToken(address)":"3ef476db","setVendorWhitelist(address,bool)":"06721259","settlementToken()":"7b9e618d","transferOwnership(address)":"f2fde38b","validateUserOp((address,uint256,bytes,bytes,bytes32,uint256,bytes32,bytes,bytes),bytes32,uint256)":"19822f7c","verifiedVendors(address)":"76a0931e","withdraw(address,uint256)":"f3fef3a3"}}}}}