{
  "_format": "hh-sol-artifact-1",
  "contractName": "AgentNFT",
  "sourceName": "contracts/AgentNFT.sol",
  "abi": [
    {
      "inputs": [],
      "stateMutability": "nonpayable",
      "type": "constructor"
    },
    {
      "inputs": [
        {
          "internalType": "address",
          "name": "sender",
          "type": "address"
        },
        {
          "internalType": "uint256",
          "name": "tokenId",
          "type": "uint256"
        },
        {
          "internalType": "address",
          "name": "owner",
          "type": "address"
        }
      ],
      "name": "ERC721IncorrectOwner",
      "type": "error"
    },
    {
      "inputs": [
        {
          "internalType": "address",
          "name": "operator",
          "type": "address"
        },
        {
          "internalType": "uint256",
          "name": "tokenId",
          "type": "uint256"
        }
      ],
      "name": "ERC721InsufficientApproval",
      "type": "error"
    },
    {
      "inputs": [
        {
          "internalType": "address",
          "name": "approver",
          "type": "address"
        }
      ],
      "name": "ERC721InvalidApprover",
      "type": "error"
    },
    {
      "inputs": [
        {
          "internalType": "address",
          "name": "operator",
          "type": "address"
        }
      ],
      "name": "ERC721InvalidOperator",
      "type": "error"
    },
    {
      "inputs": [
        {
          "internalType": "address",
          "name": "owner",
          "type": "address"
        }
      ],
      "name": "ERC721InvalidOwner",
      "type": "error"
    },
    {
      "inputs": [
        {
          "internalType": "address",
          "name": "receiver",
          "type": "address"
        }
      ],
      "name": "ERC721InvalidReceiver",
      "type": "error"
    },
    {
      "inputs": [
        {
          "internalType": "address",
          "name": "sender",
          "type": "address"
        }
      ],
      "name": "ERC721InvalidSender",
      "type": "error"
    },
    {
      "inputs": [
        {
          "internalType": "uint256",
          "name": "tokenId",
          "type": "uint256"
        }
      ],
      "name": "ERC721NonexistentToken",
      "type": "error"
    },
    {
      "inputs": [
        {
          "internalType": "address",
          "name": "owner",
          "type": "address"
        }
      ],
      "name": "OwnableInvalidOwner",
      "type": "error"
    },
    {
      "inputs": [
        {
          "internalType": "address",
          "name": "account",
          "type": "address"
        }
      ],
      "name": "OwnableUnauthorizedAccount",
      "type": "error"
    },
    {
      "anonymous": false,
      "inputs": [
        {
          "indexed": true,
          "internalType": "uint256",
          "name": "tokenId",
          "type": "uint256"
        },
        {
          "indexed": true,
          "internalType": "address",
          "name": "owner",
          "type": "address"
        },
        {
          "indexed": false,
          "internalType": "string",
          "name": "modelType",
          "type": "string"
        }
      ],
      "name": "AgentMinted",
      "type": "event"
    },
    {
      "anonymous": false,
      "inputs": [
        {
          "indexed": true,
          "internalType": "address",
          "name": "owner",
          "type": "address"
        },
        {
          "indexed": true,
          "internalType": "address",
          "name": "approved",
          "type": "address"
        },
        {
          "indexed": true,
          "internalType": "uint256",
          "name": "tokenId",
          "type": "uint256"
        }
      ],
      "name": "Approval",
      "type": "event"
    },
    {
      "anonymous": false,
      "inputs": [
        {
          "indexed": true,
          "internalType": "address",
          "name": "owner",
          "type": "address"
        },
        {
          "indexed": true,
          "internalType": "address",
          "name": "operator",
          "type": "address"
        },
        {
          "indexed": false,
          "internalType": "bool",
          "name": "approved",
          "type": "bool"
        }
      ],
      "name": "ApprovalForAll",
      "type": "event"
    },
    {
      "anonymous": false,
      "inputs": [
        {
          "indexed": false,
          "internalType": "uint256",
          "name": "_fromTokenId",
          "type": "uint256"
        },
        {
          "indexed": false,
          "internalType": "uint256",
          "name": "_toTokenId",
          "type": "uint256"
        }
      ],
      "name": "BatchMetadataUpdate",
      "type": "event"
    },
    {
      "anonymous": false,
      "inputs": [
        {
          "indexed": false,
          "internalType": "uint256",
          "name": "_tokenId",
          "type": "uint256"
        }
      ],
      "name": "MetadataUpdate",
      "type": "event"
    },
    {
      "anonymous": false,
      "inputs": [
        {
          "indexed": true,
          "internalType": "address",
          "name": "previousOwner",
          "type": "address"
        },
        {
          "indexed": true,
          "internalType": "address",
          "name": "newOwner",
          "type": "address"
        }
      ],
      "name": "OwnershipTransferred",
      "type": "event"
    },
    {
      "anonymous": false,
      "inputs": [
        {
          "indexed": true,
          "internalType": "address",
          "name": "from",
          "type": "address"
        },
        {
          "indexed": true,
          "internalType": "address",
          "name": "to",
          "type": "address"
        },
        {
          "indexed": true,
          "internalType": "uint256",
          "name": "tokenId",
          "type": "uint256"
        }
      ],
      "name": "Transfer",
      "type": "event"
    },
    {
      "inputs": [
        {
          "internalType": "uint256",
          "name": "",
          "type": "uint256"
        }
      ],
      "name": "agentMetadata",
      "outputs": [
        {
          "internalType": "string",
          "name": "modelType",
          "type": "string"
        },
        {
          "internalType": "string",
          "name": "systemPrompt",
          "type": "string"
        },
        {
          "internalType": "bytes32",
          "name": "memoryRoot",
          "type": "bytes32"
        }
      ],
      "stateMutability": "view",
      "type": "function"
    },
    {
      "inputs": [
        {
          "internalType": "address",
          "name": "to",
          "type": "address"
        },
        {
          "internalType": "uint256",
          "name": "tokenId",
          "type": "uint256"
        }
      ],
      "name": "approve",
      "outputs": [],
      "stateMutability": "nonpayable",
      "type": "function"
    },
    {
      "inputs": [
        {
          "internalType": "address",
          "name": "owner",
          "type": "address"
        }
      ],
      "name": "balanceOf",
      "outputs": [
        {
          "internalType": "uint256",
          "name": "",
          "type": "uint256"
        }
      ],
      "stateMutability": "view",
      "type": "function"
    },
    {
      "inputs": [
        {
          "internalType": "uint256",
          "name": "tokenId",
          "type": "uint256"
        }
      ],
      "name": "getApproved",
      "outputs": [
        {
          "internalType": "address",
          "name": "",
          "type": "address"
        }
      ],
      "stateMutability": "view",
      "type": "function"
    },
    {
      "inputs": [
        {
          "internalType": "address",
          "name": "owner",
          "type": "address"
        },
        {
          "internalType": "address",
          "name": "operator",
          "type": "address"
        }
      ],
      "name": "isApprovedForAll",
      "outputs": [
        {
          "internalType": "bool",
          "name": "",
          "type": "bool"
        }
      ],
      "stateMutability": "view",
      "type": "function"
    },
    {
      "inputs": [
        {
          "internalType": "address",
          "name": "to",
          "type": "address"
        },
        {
          "internalType": "string",
          "name": "uri",
          "type": "string"
        },
        {
          "internalType": "string",
          "name": "modelType",
          "type": "string"
        },
        {
          "internalType": "bytes32",
          "name": "memoryRoot",
          "type": "bytes32"
        }
      ],
      "name": "mintAgent",
      "outputs": [
        {
          "internalType": "uint256",
          "name": "",
          "type": "uint256"
        }
      ],
      "stateMutability": "nonpayable",
      "type": "function"
    },
    {
      "inputs": [],
      "name": "name",
      "outputs": [
        {
          "internalType": "string",
          "name": "",
          "type": "string"
        }
      ],
      "stateMutability": "view",
      "type": "function"
    },
    {
      "inputs": [],
      "name": "owner",
      "outputs": [
        {
          "internalType": "address",
          "name": "",
          "type": "address"
        }
      ],
      "stateMutability": "view",
      "type": "function"
    },
    {
      "inputs": [
        {
          "internalType": "uint256",
          "name": "tokenId",
          "type": "uint256"
        }
      ],
      "name": "ownerOf",
      "outputs": [
        {
          "internalType": "address",
          "name": "",
          "type": "address"
        }
      ],
      "stateMutability": "view",
      "type": "function"
    },
    {
      "inputs": [],
      "name": "renounceOwnership",
      "outputs": [],
      "stateMutability": "nonpayable",
      "type": "function"
    },
    {
      "inputs": [
        {
          "internalType": "address",
          "name": "from",
          "type": "address"
        },
        {
          "internalType": "address",
          "name": "to",
          "type": "address"
        },
        {
          "internalType": "uint256",
          "name": "tokenId",
          "type": "uint256"
        }
      ],
      "name": "safeTransferFrom",
      "outputs": [],
      "stateMutability": "nonpayable",
      "type": "function"
    },
    {
      "inputs": [
        {
          "internalType": "address",
          "name": "from",
          "type": "address"
        },
        {
          "internalType": "address",
          "name": "to",
          "type": "address"
        },
        {
          "internalType": "uint256",
          "name": "tokenId",
          "type": "uint256"
        },
        {
          "internalType": "bytes",
          "name": "data",
          "type": "bytes"
        }
      ],
      "name": "safeTransferFrom",
      "outputs": [],
      "stateMutability": "nonpayable",
      "type": "function"
    },
    {
      "inputs": [
        {
          "internalType": "address",
          "name": "operator",
          "type": "address"
        },
        {
          "internalType": "bool",
          "name": "approved",
          "type": "bool"
        }
      ],
      "name": "setApprovalForAll",
      "outputs": [],
      "stateMutability": "nonpayable",
      "type": "function"
    },
    {
      "inputs": [
        {
          "internalType": "bytes4",
          "name": "interfaceId",
          "type": "bytes4"
        }
      ],
      "name": "supportsInterface",
      "outputs": [
        {
          "internalType": "bool",
          "name": "",
          "type": "bool"
        }
      ],
      "stateMutability": "view",
      "type": "function"
    },
    {
      "inputs": [],
      "name": "symbol",
      "outputs": [
        {
          "internalType": "string",
          "name": "",
          "type": "string"
        }
      ],
      "stateMutability": "view",
      "type": "function"
    },
    {
      "inputs": [
        {
          "internalType": "uint256",
          "name": "tokenId",
          "type": "uint256"
        }
      ],
      "name": "tokenURI",
      "outputs": [
        {
          "internalType": "string",
          "name": "",
          "type": "string"
        }
      ],
      "stateMutability": "view",
      "type": "function"
    },
    {
      "inputs": [
        {
          "internalType": "address",
          "name": "from",
          "type": "address"
        },
        {
          "internalType": "address",
          "name": "to",
          "type": "address"
        },
        {
          "internalType": "uint256",
          "name": "tokenId",
          "type": "uint256"
        }
      ],
      "name": "transferFrom",
      "outputs": [],
      "stateMutability": "nonpayable",
      "type": "function"
    },
    {
      "inputs": [
        {
          "internalType": "address",
          "name": "newOwner",
          "type": "address"
        }
      ],
      "name": "transferOwnership",
      "outputs": [],
      "stateMutability": "nonpayable",
      "type": "function"
    },
    {
      "inputs": [
        {
          "internalType": "uint256",
          "name": "tokenId",
          "type": "uint256"
        },
        {
          "internalType": "bytes32",
          "name": "newRoot",
          "type": "bytes32"
        }
      ],
      "name": "updateMemoryRoot",
      "outputs": [],
      "stateMutability": "nonpayable",
      "type": "function"
    }
  ],
  "bytecode": "0x608060405234801561000f575f5ffd5b50336040518060400160405280601481526020017f304720496e74656c6c6967656e74204167656e74000000000000000000000000815250604051806040016040528060048152602001631a53919560e21b815250815f908161007291906101a7565b50600161007f82826101a7565b5050506001600160a01b0381166100af57604051631e4fbdf760e01b81525f600482015260240160405180910390fd5b6100b8816100be565b50610261565b600780546001600160a01b038381166001600160a01b0319831681179093556040519116919082907f8be0079c531659141344cd1fd0a4f28419497f9722a3daafe3b4186f6b6457e0905f90a35050565b634e487b7160e01b5f52604160045260245ffd5b600181811c9082168061013757607f821691505b60208210810361015557634e487b7160e01b5f52602260045260245ffd5b50919050565b601f8211156101a257805f5260205f20601f840160051c810160208510156101805750805b601f840160051c820191505b8181101561019f575f815560010161018c565b50505b505050565b81516001600160401b038111156101c0576101c061010f565b6101d4816101ce8454610123565b8461015b565b6020601f821160018114610206575f83156101ef5750848201515b5f19600385901b1c1916600184901b17845561019f565b5f84815260208120601f198516915b828110156102355787850151825560209485019460019092019101610215565b508482101561025257868401515f19600387901b60f8161c191681555b50505050600190811b01905550565b6116ea8061026e5f395ff3fe608060405234801561000f575f5ffd5b506004361061011c575f3560e01c806370a08231116100a9578063a22cb4651161006e578063a22cb46514610260578063b88d4fde14610273578063c87b56dd14610286578063e985e9c514610299578063f2fde38b146102ac575f5ffd5b806370a0823114610219578063715018a61461022c5780638da5cb5b1461023457806395d89b4114610245578063a11ed8191461024d575f5ffd5b806312df4330116100ef57806312df43301461019d57806323b872dd146101be57806342842e0e146101d157806347a95efb146101e45780636352211e14610206575f5ffd5b806301ffc9a71461012057806306fdde0314610148578063081812fc1461015d578063095ea7b314610188575b5f5ffd5b61013361012e366004611174565b6102bf565b60405190151581526020015b60405180910390f35b6101506102e9565b60405161013f91906111bd565b61017061016b3660046111cf565b610378565b6040516001600160a01b03909116815260200161013f565b61019b610196366004611201565b61039f565b005b6101b06101ab3660046112d2565b6103ae565b60405190815260200161013f565b61019b6101cc36600461134e565b610489565b61019b6101df36600461134e565b610517565b6101f76101f23660046111cf565b610536565b60405161013f93929190611388565b6101706102143660046111cf565b610663565b6101b06102273660046113bd565b61066d565b61019b6106b2565b6007546001600160a01b0316610170565b6101506106c5565b61019b61025b3660046113d6565b6106d4565b61019b61026e3660046113f6565b61073e565b61019b61028136600461142f565b610749565b6101506102943660046111cf565b610761565b6101336102a73660046114a6565b6107e2565b61019b6102ba3660046113bd565b61080f565b5f6001600160e01b03198216632483248360e11b14806102e357506102e38261084c565b92915050565b60605f80546102f7906114d7565b80601f0160208091040260200160405190810160405280929190818152602001828054610323906114d7565b801561036e5780601f106103455761010080835404028352916020019161036e565b820191905f5260205f20905b81548152906001019060200180831161035157829003601f168201915b5050505050905090565b5f6103828261089b565b505f828152600460205260409020546001600160a01b03166102e3565b6103aa8282336108d3565b5050565b600880545f91829190826103c18361150f565b9190505590506103d186826108e0565b6103db81866108f9565b604080516060810182528581528151602081810184525f8083528184019290925282840187905284825260099052919091208151819061041b9082611577565b50602082015160018201906104309082611577565b5060408201518160020155905050856001600160a01b0316817f4163bfac127160e0f9f156ad45f09360dfe365c4fcdf394c40bdfece890ee6f78660405161047891906111bd565b60405180910390a395945050505050565b6001600160a01b0382166104b757604051633250574960e11b81525f60048201526024015b60405180910390fd5b5f6104c3838333610948565b9050836001600160a01b0316816001600160a01b031614610511576040516364283d7b60e01b81526001600160a01b03808616600483015260248201849052821660448201526064016104ae565b50505050565b61053183838360405180602001604052805f815250610749565b505050565b60096020525f9081526040902080548190610550906114d7565b80601f016020809104026020016040519081016040528092919081815260200182805461057c906114d7565b80156105c75780601f1061059e576101008083540402835291602001916105c7565b820191905f5260205f20905b8154815290600101906020018083116105aa57829003601f168201915b5050505050908060010180546105dc906114d7565b80601f0160208091040260200160405190810160405280929190818152602001828054610608906114d7565b80156106535780601f1061062a57610100808354040283529160200191610653565b820191905f5260205f20905b81548152906001019060200180831161063657829003601f168201915b5050505050908060020154905083565b5f6102e38261089b565b5f6001600160a01b038216610697576040516322718ad960e21b81525f60048201526024016104ae565b506001600160a01b03165f9081526003602052604090205490565b6106ba610a3a565b6106c35f610a67565b565b6060600180546102f7906114d7565b336106de83610663565b6001600160a01b03161461072a5760405162461bcd60e51b81526020600482015260136024820152722737ba103a34329030b3b2b73a1037bbb732b960691b60448201526064016104ae565b5f9182526009602052604090912060020155565b6103aa338383610ab8565b610754848484610489565b6105113385858585610b7f565b606061076c8261089b565b505f61078260408051602081019091525f815290565b90505f61078e84610ca7565b905081515f0361079f579392505050565b8051156107d15781816040516020016107b9929190611649565b60405160208183030381529060405292505050919050565b6107da84610d46565b949350505050565b6001600160a01b039182165f90815260056020908152604080832093909416825291909152205460ff1690565b610817610a3a565b6001600160a01b03811661084057604051631e4fbdf760e01b81525f60048201526024016104ae565b61084981610a67565b50565b5f6001600160e01b031982166380ac58cd60e01b148061087c57506001600160e01b03198216635b5e139f60e01b145b806102e357506301ffc9a760e01b6001600160e01b03198316146102e3565b5f818152600260205260408120546001600160a01b0316806102e357604051637e27328960e01b8152600481018490526024016104ae565b6105318383836001610db7565b6103aa828260405180602001604052805f815250610ebb565b5f8281526006602052604090206109108282611577565b506040518281527ff8e1a15aba9398e019f0b49df1a4fde98ee17ae345cb5f6b5e2c27f5033e8ce79060200160405180910390a15050565b5f828152600260205260408120546001600160a01b039081169083161561097457610974818486610ed2565b6001600160a01b038116156109ae5761098f5f855f5f610db7565b6001600160a01b0381165f90815260036020526040902080545f190190555b6001600160a01b038516156109dc576001600160a01b0385165f908152600360205260409020805460010190555b5f8481526002602052604080822080546001600160a01b0319166001600160a01b0389811691821790925591518793918516917fddf252ad1be2c89b69c2b068fc378daa952ba7f163c4a11628f55a4df523b3ef91a4949350505050565b6007546001600160a01b031633146106c35760405163118cdaa760e01b81523360048201526024016104ae565b600780546001600160a01b038381166001600160a01b0319831681179093556040519116919082907f8be0079c531659141344cd1fd0a4f28419497f9722a3daafe3b4186f6b6457e0905f90a35050565b6001600160a01b038316610ae15760405163a9fbf51f60e01b81525f60048201526024016104ae565b6001600160a01b038216610b1357604051630b61174360e31b81526001600160a01b03831660048201526024016104ae565b6001600160a01b038381165f81815260056020908152604080832094871680845294825291829020805460ff191686151590811790915591519182527f17307eab39ab6107e8899845ad3d59bd9653f200f220920489ca2b5937696c31910160405180910390a3505050565b6001600160a01b0383163b15610ca057604051630a85bd0160e11b81526001600160a01b0384169063150b7a0290610bc190889088908790879060040161165d565b6020604051808303815f875af1925050508015610bfb575060408051601f3d908101601f19168201909252610bf891810190611699565b60015b610c62573d808015610c28576040519150601f19603f3d011682016040523d82523d5f602084013e610c2d565b606091505b5080515f03610c5a57604051633250574960e11b81526001600160a01b03851660048201526024016104ae565b805160208201fd5b6001600160e01b03198116630a85bd0160e11b14610c9e57604051633250574960e11b81526001600160a01b03851660048201526024016104ae565b505b5050505050565b5f818152600660205260409020805460609190610cc3906114d7565b80601f0160208091040260200160405190810160405280929190818152602001828054610cef906114d7565b8015610d3a5780601f10610d1157610100808354040283529160200191610d3a565b820191905f5260205f20905b815481529060010190602001808311610d1d57829003601f168201915b50505050509050919050565b6060610d518261089b565b505f610d6760408051602081019091525f815290565b90505f815111610d855760405180602001604052805f815250610db0565b80610d8f84610f36565b604051602001610da0929190611649565b6040516020818303038152906040525b9392505050565b8080610dcb57506001600160a01b03821615155b15610e8c575f610dda8461089b565b90506001600160a01b03831615801590610e065750826001600160a01b0316816001600160a01b031614155b8015610e195750610e1781846107e2565b155b15610e425760405163a9fbf51f60e01b81526001600160a01b03841660048201526024016104ae565b8115610e8a5783856001600160a01b0316826001600160a01b03167f8c5be1e5ebec7d5bd14f71427d1e84f3dd0314c0f7b2291e5b200ac8c7c3b92560405160405180910390a45b505b50505f90815260046020526040902080546001600160a01b0319166001600160a01b0392909216919091179055565b610ec58383610fc6565b610531335f858585610b7f565b610edd838383611027565b610531576001600160a01b038316610f0b57604051637e27328960e01b8152600481018290526024016104ae565b60405163177e802f60e01b81526001600160a01b0383166004820152602481018290526044016104ae565b60605f610f4283611088565b60010190505f8167ffffffffffffffff811115610f6157610f61611229565b6040519080825280601f01601f191660200182016040528015610f8b576020820181803683370190505b5090508181016020015b5f19016f181899199a1a9b1b9c1cb0b131b232b360811b600a86061a8153600a8504945084610f9557509392505050565b6001600160a01b038216610fef57604051633250574960e11b81525f60048201526024016104ae565b5f610ffb83835f610948565b90506001600160a01b03811615610531576040516339e3563760e11b81525f60048201526024016104ae565b5f6001600160a01b038316158015906107da5750826001600160a01b0316846001600160a01b03161480611060575061106084846107e2565b806107da5750505f908152600460205260409020546001600160a01b03908116911614919050565b5f8072184f03e93ff9f4daa797ed6e38ed64bf6a1f0160401b83106110c65772184f03e93ff9f4daa797ed6e38ed64bf6a1f0160401b830492506040015b6d04ee2d6d415b85acef810000000083106110f2576d04ee2d6d415b85acef8100000000830492506020015b662386f26fc10000831061111057662386f26fc10000830492506010015b6305f5e1008310611128576305f5e100830492506008015b612710831061113c57612710830492506004015b6064831061114e576064830492506002015b600a83106102e35760010192915050565b6001600160e01b031981168114610849575f5ffd5b5f60208284031215611184575f5ffd5b8135610db08161115f565b5f81518084528060208401602086015e5f602082860101526020601f19601f83011685010191505092915050565b602081525f610db0602083018461118f565b5f602082840312156111df575f5ffd5b5035919050565b80356001600160a01b03811681146111fc575f5ffd5b919050565b5f5f60408385031215611212575f5ffd5b61121b836111e6565b946020939093013593505050565b634e487b7160e01b5f52604160045260245ffd5b5f5f67ffffffffffffffff84111561125757611257611229565b50604051601f19601f85018116603f0116810181811067ffffffffffffffff8211171561128657611286611229565b60405283815290508082840185101561129d575f5ffd5b838360208301375f60208583010152509392505050565b5f82601f8301126112c3575f5ffd5b610db08383356020850161123d565b5f5f5f5f608085870312156112e5575f5ffd5b6112ee856111e6565b9350602085013567ffffffffffffffff811115611309575f5ffd5b611315878288016112b4565b935050604085013567ffffffffffffffff811115611331575f5ffd5b61133d878288016112b4565b949793965093946060013593505050565b5f5f5f60608486031215611360575f5ffd5b611369846111e6565b9250611377602085016111e6565b929592945050506040919091013590565b606081525f61139a606083018661118f565b82810360208401526113ac818661118f565b915050826040830152949350505050565b5f602082840312156113cd575f5ffd5b610db0826111e6565b5f5f604083850312156113e7575f5ffd5b50508035926020909101359150565b5f5f60408385031215611407575f5ffd5b611410836111e6565b915060208301358015158114611424575f5ffd5b809150509250929050565b5f5f5f5f60808587031215611442575f5ffd5b61144b856111e6565b9350611459602086016111e6565b925060408501359150606085013567ffffffffffffffff81111561147b575f5ffd5b8501601f8101871361148b575f5ffd5b61149a8782356020840161123d565b91505092959194509250565b5f5f604083850312156114b7575f5ffd5b6114c0836111e6565b91506114ce602084016111e6565b90509250929050565b600181811c908216806114eb57607f821691505b60208210810361150957634e487b7160e01b5f52602260045260245ffd5b50919050565b5f6001820161152c57634e487b7160e01b5f52601160045260245ffd5b5060010190565b601f82111561053157805f5260205f20601f840160051c810160208510156115585750805b601f840160051c820191505b81811015610ca0575f8155600101611564565b815167ffffffffffffffff81111561159157611591611229565b6115a58161159f84546114d7565b84611533565b6020601f8211600181146115d7575f83156115c05750848201515b5f19600385901b1c1916600184901b178455610ca0565b5f84815260208120601f198516915b8281101561160657878501518255602094850194600190920191016115e6565b508482101561162357868401515f19600387901b60f8161c191681555b50505050600190811b01905550565b5f81518060208401855e5f93019283525090919050565b5f6107da6116578386611632565b84611632565b6001600160a01b03858116825284166020820152604081018390526080606082018190525f9061168f9083018461118f565b9695505050505050565b5f602082840312156116a9575f5ffd5b8151610db08161115f56fea264697066735822122084c29ef6e522cc4416e0c7f37bd99582420350a1df9fab8759b94a51b779e71a64736f6c634300081c0033",
  "linkReferences": {},
  "deployedLinkReferences": {}
}